{
  "contractName": "Array",
  "abi": [
    {
      "inputs": [],
      "payable": false,
      "stateMutability": "nonpayable",
      "type": "constructor"
    },
    {
      "constant": false,
      "inputs": [],
      "name": "conversionTest",
      "outputs": [
        {
          "name": "",
          "type": "string"
        }
      ],
      "payable": false,
      "stateMutability": "nonpayable",
      "type": "function"
    },
    {
      "constant": false,
      "inputs": [
        {
          "name": "index",
          "type": "uint256"
        }
      ],
      "name": "getElementAt",
      "outputs": [
        {
          "name": "",
          "type": "bytes1"
        }
      ],
      "payable": false,
      "stateMutability": "nonpayable",
      "type": "function"
    },
    {
      "constant": false,
      "inputs": [],
      "name": "getUintOfByte",
      "outputs": [
        {
          "name": "",
          "type": "string"
        }
      ],
      "payable": false,
      "stateMutability": "nonpayable",
      "type": "function"
    },
    {
      "constant": false,
      "inputs": [
        {
          "name": "y",
          "type": "bytes32"
        }
      ],
      "name": "bytes32ToString",
      "outputs": [
        {
          "name": "",
          "type": "string"
        }
      ],
      "payable": false,
      "stateMutability": "nonpayable",
      "type": "function"
    }
  ],
  "bytecode": "0x60806040526040518060600160405280600160000b60000b8152602001600260000b8152602001600360000b8152506000906003620000409291906200047b565b506040518060600160405280600160ff168152602001600260ff168152602001600360ff1681525060019060036200007a9291906200051f565b506040518060400160405280600160ff168152602001600260ff168152506002906002620000aa92919062000576565b50600160f81b600760006101000a81548160ff021916908360f81c02179055506040518060200160405280600160f81b7effffffffffffffffffffffffffffffffffffffffffffffffffffffffffffff19167effffffffffffffffffffffffffffffffffffffffffffffffffffffffffffff1916815250600d90600162000133929190620005c0565b506040518060400160405280600581526020017f6162636465000000000000000000000000000000000000000000000000000000815250601190805190602001906200018192919062000661565b507f4142434431313131313131313131313131313131313131313131313131313131601255348015620001b357600080fd5b506040518060600160405280600160000b60000b8152602001600260000b8152602001600360000b8152506005906003620001f0929190620006e8565b506008604051908082528060200260200182016040528015620002225781602001602082028038833980820191505090505b50600690805190602001906200023a92919062000799565b50606060086040519080825280602002602001820160405280156200026e5781602001602082028038833980820191505090505b5090506040518060600160405280600160f81b7effffffffffffffffffffffffffffffffffffffffffffffffffffffffffffff19167effffffffffffffffffffffffffffffffffffffffffffffffffffffffffffff19168152602001600160f81b7effffffffffffffffffffffffffffffffffffffffffffffffffffffffffffff19167effffffffffffffffffffffffffffffffffffffffffffffffffffffffffffff19168152602001600160f81b7effffffffffffffffffffffffffffffffffffffffffffffffffffffffffffff19167effffffffffffffffffffffffffffffffffffffffffffffffffffffffffffff1916815250600d9060036200037692919062000846565b506040518060600160405280600160f81b7effffffffffffffffffffffffffffffffffffffffffffffffffffffffffffff19167effffffffffffffffffffffffffffffffffffffffffffffffffffffffffffff19168152602001600260f81b7effffffffffffffffffffffffffffffffffffffffffffffffffffffffffffff19168152602001600360f81b7effffffffffffffffffffffffffffffffffffffffffffffffffffffffffffff1916815250600d9060036200043892919062000846565b5060606040518060400160405280600381526020017f616263000000000000000000000000000000000000000000000000000000000081525090505050620009d0565b826003601f016020900481019282156200050c5791602002820160005b83821115620004db57835183826101000a81548160ff021916908360000b60ff160217905550926020019260010160208160000104928301926001030262000498565b80156200050a5782816101000a81549060ff0219169055600101602081600001049283019260010302620004db565b505b5090506200051b9190620008e7565b5090565b82805482825590600052602060002090810192821562000563579160200282015b8281111562000562578251829060ff1690559160200191906001019062000540565b5b5090506200057291906200091a565b5090565b8260038101928215620005ad579160200282015b82811115620005ac578251829060ff169055916020019190600101906200058a565b5b509050620005bc91906200091a565b5090565b826003601f016020900481019282156200064e5791602002820160005b838211156200061d57835183826101000a81548160ff021916908360f81c02179055509260200192600101602081600001049283019260010302620005dd565b80156200064c5782816101000a81549060ff02191690556001016020816000010492830192600103026200061d565b505b5090506200065d919062000942565b5090565b828054600181600116156101000203166002900490600052602060002090601f016020900481019282601f10620006a457805160ff1916838001178555620006d5565b82800160010185558215620006d5579182015b82811115620006d4578251825591602001919060010190620006b7565b5b509050620006e4919062000975565b5090565b82805482825590600052602060002090601f01602090048101928215620007865791602002820160005b838211156200075557835183826101000a81548160ff021916908360000b60ff160217905550926020019260010160208160000104928301926001030262000712565b8015620007845782816101000a81549060ff021916905560010160208160000104928301926001030262000755565b505b509050620007959190620008e7565b5090565b82805482825590600052602060002090601f01602090048101928215620008335791602002820160005b838211156200080257835183826101000a81548160ff0219169083151502179055509260200192600101602081600001049283019260010302620007c3565b8015620008315782816101000a81549060ff021916905560010160208160000104928301926001030262000802565b505b5090506200084291906200099d565b5090565b826003601f01602090048101928215620008d45791602002820160005b83821115620008a357835183826101000a81548160ff021916908360f81c0217905550926020019260010160208160000104928301926001030262000863565b8015620008d25782816101000a81549060ff0219169055600101602081600001049283019260010302620008a3565b505b509050620008e3919062000942565b5090565b6200091791905b808211156200091357600081816101000a81549060ff021916905550600101620008ee565b5090565b90565b6200093f91905b808211156200093b57600081600090555060010162000921565b5090565b90565b6200097291905b808211156200096e57600081816101000a81549060ff02191690555060010162000949565b5090565b90565b6200099a91905b80821115620009965760008160009055506001016200097c565b5090565b90565b620009cd91905b80821115620009c957600081816101000a81549060ff021916905550600101620009a4565b5090565b90565b61056380620009e06000396000f3fe608060405234801561001057600080fd5b506004361061004c5760003560e01c80639201de551461005157806392a33630146100f8578063a461c1141461017b578063d8a865f6146101fe575b600080fd5b61007d6004803603602081101561006757600080fd5b8101908080359060200190929190505050610284565b6040518080602001828103825283818151815260200191508051906020019080838360005b838110156100bd5780820151818401526020810190506100a2565b50505050905090810190601f1680156100ea5780820380516001836020036101000a031916815260200191505b509250505060405180910390f35b610100610417565b6040518080602001828103825283818151815260200191508051906020019080838360005b83811015610140578082015181840152602081019050610125565b50505050905090810190601f16801561016d5780820380516001836020036101000a031916815260200191505b509250505060405180910390f35b61018361045f565b6040518080602001828103825283818151815260200191508051906020019080838360005b838110156101c35780820151818401526020810190506101a8565b50505050905090810190601f1680156101f05780820380516001836020036101000a031916815260200191505b509250505060405180910390f35b61022a6004803603602081101561021457600080fd5b8101908080359060200190929190505050610471565b60405180827effffffffffffffffffffffffffffffffffffffffffffffffffffffffffffff19167effffffffffffffffffffffffffffffffffffffffffffffffffffffffffffff1916815260200191505060405180910390f35b60608060206040519080825280601f01601f1916602001820160405280156102bb5781602001600182028038833980820191505090505b509050600080905060008090505b60208110156103655760008160080260020a8660001c0260001b9050600060f81b817effffffffffffffffffffffffffffffffffffffffffffffffffffffffffffff191614610357578084848151811061031f57fe5b60200101907effffffffffffffffffffffffffffffffffffffffffffffffffffffffffffff1916908160001a90535082806001019350505b5080806001019150506102c9565b506060816040519080825280601f01601f19166020018201604052801561039b5781602001600182028038833980820191505090505b50905060008090505b8281101561040b578381815181106103b857fe5b602001015160f81c60f81b8282815181106103cf57fe5b60200101907effffffffffffffffffffffffffffffffffffffffffffffffffffffffffffff1916908160001a90535080806001019150506103a4565b50809350505050919050565b6060806040518060400160405280600581526020017f68656c6c6f00000000000000000000000000000000000000000000000000000081525090506060819050809250505090565b606061046c601254610284565b905090565b6000606060118054600181600116156101000203166002900480601f01602080910402602001604051908101604052809291908181526020018280546001816001161561010002031660029004801561050b5780601f106104e05761010080835404028352916020019161050b565b820191906000526020600020905b8154815290600101906020018083116104ee57829003601f168201915b50505050509050600081848151811061052057fe5b602001015160f81c60f81b9050809250505091905056fea165627a7a72305820072931eec439cba372be9fb6cf7eda38a3927f3637ca4c5026d751ac86c920890029",
  "source": "pragma solidity ^0.5.0;\n\n\ncontract Array {\n\n  //int8[3] arr1 = [1,2,3]; //This will not compile due to type mismatch. By Default each number is uint8.\n\n  int8[3] arr = [int8(1),2,3];\n\n  int[] arry = [1,2,3 ];\n\n  int[3] staticArray = [1,2]; //Third element is 0.\n\n  //int[3] staticArray1 = [1,2,3,4];  //Will not compile\n\n  int8[] dynamicIntArray;\n  bool[] dynamicBoolArray;\n\n  byte b = 0x01;\n  byte[120] bigarray;//static (fixed size) byte array\n  bytes3 fixedByteArray;\n  byte[3] fixedByteArray2 = [bytes1(0x01)];\n  byte[] byteData; //dynamic byte array\n  bytes8 arrayof8bytes; //static byte array\n  bytes bytearray; //dynamic byte array\n  string stringStorage = \"abcde\";\n\n  bytes32 x = \"ABCD1111111111111111111111111111\";\n\n  constructor() public {\n    dynamicIntArray = [int8(1), 2, 3];\n    dynamicBoolArray = new bool[](8);\n\n    uint8[] memory memoryArray;\n    //memoryArray = [1,2,3]; //memory is not implicitly convertible to expected type uint8[] memory\n    memoryArray = new uint8[](8);\n    //memoryArray.push(2); // push not available for memory only for storage\n\n\n    fixedByteArray2 = [byte(0x01), byte(0x01), byte(0x01)];\n    fixedByteArray2 = [ bytes1(0x01), 0x02, 0x03];\n\n    //bytes[] memory dynamicArray;\n    //bytes32  array1 = \"somestring\";\n    //string memory data = string(array1); //does not compile\n\n    string memory xyz = \"abc\";\n\n\n  }\n\n  function conversionTest() public returns (string memory) {\n\n    bytes memory hello = \"hello\";\n    string memory converted = string(hello);\n    return converted;\n  }\n\n  function getElementAt(uint index) public returns(byte) {\n\n        bytes memory bytesData = bytes(stringStorage);\n        byte element = bytesData[index];\n        return element;\n  }\n\n  function getUintOfByte() public returns (string memory) {\n     return bytes32ToString(x);\n  }\n\n  function bytes32ToString(bytes32 y) public returns (string memory) {\n    bytes memory bytesString = new bytes(32);\n    uint charCount = 0;\n    for (uint j = 0; j < 32; j++) {\n        byte char = byte(bytes32(uint(y) * 2 ** (8 * j)));\n        if (char != 0) {\n            bytesString[charCount] = char;\n            charCount++;\n        }\n    }\n    bytes memory bytesStringTrimmed = new bytes(charCount);\n    for (uint j = 0; j < charCount; j++) {\n        bytesStringTrimmed[j] = bytesString[j];\n    }\n    return string(bytesStringTrimmed);\n  }\n}\n",
  "sourcePath": "/Users/udaydeshpande/elpt/project/project2/solidity/contracts/Array.sol",
  "compiler": {
    "name": "solc",
    "version": "0.5.8+commit.23d335f2.Emscripten.clang"
  },
  "schemaVersion": "3.0.16",
  "updatedAt": "2019-10-15T21:21:13.555Z",
  "devdoc": {
    "methods": {}
  },
  "userdoc": {
    "methods": {}
  }
}