{
  "contractName": "Calculator",
  "abi": [
    {
      "inputs": [],
      "payable": false,
      "stateMutability": "nonpayable",
      "type": "constructor"
    },
    {
      "constant": true,
      "inputs": [],
      "name": "getResult",
      "outputs": [
        {
          "name": "",
          "type": "uint256"
        }
      ],
      "payable": false,
      "stateMutability": "view",
      "type": "function"
    },
    {
      "constant": false,
      "inputs": [
        {
          "name": "num",
          "type": "uint256"
        }
      ],
      "name": "addToNumber",
      "outputs": [
        {
          "name": "",
          "type": "uint256"
        }
      ],
      "payable": false,
      "stateMutability": "nonpayable",
      "type": "function"
    },
    {
      "constant": false,
      "inputs": [
        {
          "name": "num",
          "type": "uint256"
        }
      ],
      "name": "subtractFromNumber",
      "outputs": [
        {
          "name": "",
          "type": "uint256"
        }
      ],
      "payable": false,
      "stateMutability": "nonpayable",
      "type": "function"
    },
    {
      "constant": true,
      "inputs": [],
      "name": "multiplyWithNumber",
      "outputs": [
        {
          "name": "",
          "type": "uint256"
        }
      ],
      "payable": false,
      "stateMutability": "view",
      "type": "function"
    },
    {
      "constant": true,
      "inputs": [],
      "name": "divideNumberBy",
      "outputs": [
        {
          "name": "",
          "type": "uint256"
        }
      ],
      "payable": false,
      "stateMutability": "view",
      "type": "function"
    }
  ],
  "bytecode": "0x608060405234801561001057600080fd5b50600a6000819055506101b7806100286000396000f3fe608060405234801561001057600080fd5b50600436106100575760003560e01c806306ccd2301461005c5780630ce4805c1461009e57806382f7d5c3146100bc578063a9401603146100da578063de2927891461011c575b600080fd5b6100886004803603602081101561007257600080fd5b810190808035906020019092919050505061013a565b6040518082815260200191505060405180910390f35b6100a6610155565b6040518082815260200191505060405180910390f35b6100c461015e565b6040518082815260200191505060405180910390f35b610106600480360360208110156100f057600080fd5b8101908080359060200190929190505050610167565b6040518082815260200191505060405180910390f35b610124610182565b6040518082815260200191505060405180910390f35b60008160008082825401925050819055506000549050919050565b60008054905090565b60008054905090565b60008160008082825403925050819055506000549050919050565b6000805490509056fea165627a7a72305820e6c55c078235a7688c17a9395b290cc276eff0504fd5d5031b02abfddde205730029",
  "source": "pragma solidity ^0.5.0;\n\ncontract Calculator {\n\n  uint result;\n\n  constructor() public {\n    // constructor\n    result = 10;\n  }\n\n  // returns the result\n  function getResult() public view returns (uint){\n    return result;\n  }\n\n  // result = result + num\n  function addToNumber(uint num) public returns (uint) {\n    result += num;\n    return result;\n  }\n\n  // result = result - num\n  function subtractFromNumber(uint num) public returns (uint) {\n    result -= num;\n    return result;\n  }\n\n  // result = result * num\n  function multiplyWithNumber() public view returns (uint) {\n    return result;\n  }\n\n  // result = result / num\n  function divideNumberBy() public view returns (uint) {\n    return result;\n  }\n\n}",
  "sourcePath": "/Users/udaydeshpande/elpt/project/project2/solidity/contracts/Calculator.sol",
  "compiler": {
    "name": "solc",
    "version": "0.5.8+commit.23d335f2.Emscripten.clang"
  },
  "schemaVersion": "3.0.16",
  "updatedAt": "2019-10-15T21:21:13.551Z",
  "devdoc": {
    "methods": {}
  },
  "userdoc": {
    "methods": {}
  }
}