{
  "contractName": "CalculatorV2",
  "abi": [
    {
      "inputs": [
        {
          "name": "num",
          "type": "uint256"
        }
      ],
      "payable": false,
      "stateMutability": "nonpayable",
      "type": "constructor"
    },
    {
      "anonymous": false,
      "inputs": [
        {
          "indexed": false,
          "name": "n",
          "type": "uint256"
        }
      ],
      "name": "NumberAdded",
      "type": "event"
    },
    {
      "anonymous": false,
      "inputs": [
        {
          "indexed": false,
          "name": "n",
          "type": "uint256"
        }
      ],
      "name": "NumberSubtracted",
      "type": "event"
    },
    {
      "anonymous": false,
      "inputs": [
        {
          "indexed": false,
          "name": "n",
          "type": "uint256"
        }
      ],
      "name": "NumberMultiplied",
      "type": "event"
    },
    {
      "anonymous": false,
      "inputs": [
        {
          "indexed": false,
          "name": "n",
          "type": "uint256"
        }
      ],
      "name": "NumberDivided",
      "type": "event"
    },
    {
      "constant": true,
      "inputs": [],
      "name": "getResult",
      "outputs": [
        {
          "name": "",
          "type": "uint256"
        }
      ],
      "payable": false,
      "stateMutability": "view",
      "type": "function"
    },
    {
      "constant": false,
      "inputs": [
        {
          "name": "num",
          "type": "uint256"
        }
      ],
      "name": "addToNumber",
      "outputs": [
        {
          "name": "",
          "type": "uint256"
        }
      ],
      "payable": false,
      "stateMutability": "nonpayable",
      "type": "function"
    },
    {
      "constant": false,
      "inputs": [
        {
          "name": "num",
          "type": "uint256"
        }
      ],
      "name": "substractNumber",
      "outputs": [
        {
          "name": "",
          "type": "uint256"
        }
      ],
      "payable": false,
      "stateMutability": "nonpayable",
      "type": "function"
    },
    {
      "constant": false,
      "inputs": [
        {
          "name": "num",
          "type": "uint256"
        }
      ],
      "name": "multiplyWithNumber",
      "outputs": [
        {
          "name": "",
          "type": "uint256"
        }
      ],
      "payable": false,
      "stateMutability": "nonpayable",
      "type": "function"
    },
    {
      "constant": false,
      "inputs": [
        {
          "name": "num",
          "type": "uint256"
        }
      ],
      "name": "divideByNumber",
      "outputs": [
        {
          "name": "",
          "type": "uint256"
        }
      ],
      "payable": false,
      "stateMutability": "nonpayable",
      "type": "function"
    }
  ],
  "bytecode": "0x608060405234801561001057600080fd5b5060405160208061035e8339810180604052602081101561003057600080fd5b81019080805190602001909291905050508060008190555050610306806100586000396000f3fe608060405234801561001057600080fd5b50600436106100575760003560e01c806306ccd2301461005c5780630b7e4e7f1461009e578063b4679b06146100e0578063de29278914610122578063f5cb911d14610140575b600080fd5b6100886004803603602081101561007257600080fd5b8101908080359060200190929190505050610182565b6040518082815260200191505060405180910390f35b6100ca600480360360208110156100b457600080fd5b81019080803590602001909291905050506101d4565b6040518082815260200191505060405180910390f35b61010c600480360360208110156100f657600080fd5b8101908080359060200190929190505050610226565b6040518082815260200191505060405180910390f35b61012a610278565b6040518082815260200191505060405180910390f35b61016c6004803603602081101561015657600080fd5b8101908080359060200190929190505050610281565b6040518082815260200191505060405180910390f35b60008160008082825401925050819055507fae3addfccd9152bd45552621c986157cf223c02d568e9c2c678baa8dbf81a233826040518082815260200191505060405180910390a16000549050919050565b60008160008082825403925050819055507f439edab735a689015068ab41d6d30bd005705cfa5a000161404fafd0c7b78673826040518082815260200191505060405180910390a16000549050919050565b60008160008082825402925050819055507fa895b6fc5616dc5f28ac38cbba65bf73cc432c1d07abc566c2ee5a77d7e14b75826040518082815260200191505060405180910390a16000549050919050565b60008054905090565b6000816000808282548161029157fe5b04925050819055507fed0bc23928add0162a999d4ea2049c291319a7a8963d7e72136b37c73ee4f991826040518082815260200191505060405180910390a1600054905091905056fea165627a7a7230582043d9a77e89e1b71fc6eb32848b302f20d3b72519573991eb6163978547fb381d0029",
  "source": "pragma solidity ^0.5.0;\n\ncontract CalculatorV2 {\n\n  uint result;\n\n  event NumberAdded(uint n);\n  event NumberSubtracted(uint n);\n  event NumberMultiplied(uint n);\n  event NumberDivided(uint n);\n\n  constructor(uint num) public {\n    // constructor\n    result = num;\n  }\n\n  // returns the result\n  function getResult() public view returns (uint){\n    return result;\n  }\n\n  // result = result + num\n  function addToNumber(uint num) public returns (uint) {\n    result += num;\n    emit NumberAdded(num);\n    return result;\n  }\n\n  // result = result - num\n  function substractNumber(uint num) public returns (uint) {\n    result -= num;\n    emit NumberSubtracted(num);\n    return result;\n  }\n\n  // result = result * num\n  function multiplyWithNumber(uint num) public returns (uint) {\n    result *= num;\n    emit NumberMultiplied(num);\n    return result;\n  }\n\n  // result = result / num\n  function divideByNumber(uint num) public returns (uint) {\n    result /= num;\n    emit NumberDivided(num);\n    return result;\n  }\n\n}",
  "sourcePath": "/Users/udaydeshpande/elpt/project/project2/solidity/contracts/CalculatorV2.sol",
  "compiler": {
    "name": "solc",
    "version": "0.5.8+commit.23d335f2.Emscripten.clang"
  },
  "schemaVersion": "3.0.16",
  "updatedAt": "2019-10-15T21:21:13.552Z",
  "devdoc": {
    "methods": {}
  },
  "userdoc": {
    "methods": {}
  }
}