{
  "contractName": "ChildContract",
  "abi": [
    {
      "constant": true,
      "inputs": [],
      "name": "name",
      "outputs": [
        {
          "name": "",
          "type": "bytes32"
        }
      ],
      "payable": false,
      "stateMutability": "view",
      "type": "function"
    },
    {
      "constant": true,
      "inputs": [],
      "name": "identity",
      "outputs": [
        {
          "name": "",
          "type": "uint8"
        }
      ],
      "payable": false,
      "stateMutability": "view",
      "type": "function"
    },
    {
      "constant": true,
      "inputs": [],
      "name": "owner",
      "outputs": [
        {
          "name": "",
          "type": "address"
        }
      ],
      "payable": false,
      "stateMutability": "view",
      "type": "function"
    },
    {
      "inputs": [
        {
          "name": "id",
          "type": "uint8"
        },
        {
          "name": "own",
          "type": "address"
        },
        {
          "name": "nm",
          "type": "bytes32"
        }
      ],
      "payable": false,
      "stateMutability": "nonpayable",
      "type": "constructor"
    },
    {
      "anonymous": false,
      "inputs": [
        {
          "indexed": false,
          "name": "identity",
          "type": "uint8"
        },
        {
          "indexed": false,
          "name": "from",
          "type": "bytes32"
        },
        {
          "indexed": false,
          "name": "to",
          "type": "bytes32"
        }
      ],
      "name": "ChildOwnerTransfered",
      "type": "event"
    },
    {
      "constant": false,
      "inputs": [
        {
          "name": "newOwner",
          "type": "address"
        },
        {
          "name": "nm",
          "type": "bytes32"
        }
      ],
      "name": "transferOwnership",
      "outputs": [],
      "payable": false,
      "stateMutability": "nonpayable",
      "type": "function"
    },
    {
      "constant": true,
      "inputs": [
        {
          "name": "addr",
          "type": "address"
        }
      ],
      "name": "isOwner",
      "outputs": [
        {
          "name": "",
          "type": "bool"
        }
      ],
      "payable": false,
      "stateMutability": "view",
      "type": "function"
    }
  ],
  "bytecode": "0x608060405234801561001057600080fd5b506040516060806104298339810180604052606081101561003057600080fd5b81019080805190602001909291908051906020019092919080519060200190929190505050826000806101000a81548160ff021916908360ff16021790555081600060016101000a81548173ffffffffffffffffffffffffffffffffffffffff021916908373ffffffffffffffffffffffffffffffffffffffff16021790555080600181905550505050610360806100c96000396000f3fe608060405234801561001057600080fd5b50600436106100575760003560e01c806306fdde031461005c5780632c159a1a1461007a5780632f54bf6e1461009e57806389e6b5fb146100fa5780638da5cb5b14610148575b600080fd5b610064610192565b6040518082815260200191505060405180910390f35b610082610198565b604051808260ff1660ff16815260200191505060405180910390f35b6100e0600480360360208110156100b457600080fd5b81019080803573ffffffffffffffffffffffffffffffffffffffff1690602001909291905050506101aa565b604051808215151515815260200191505060405180910390f35b6101466004803603604081101561011057600080fd5b81019080803573ffffffffffffffffffffffffffffffffffffffff16906020019092919080359060200190929190505050610203565b005b61015061030e565b604051808273ffffffffffffffffffffffffffffffffffffffff1673ffffffffffffffffffffffffffffffffffffffff16815260200191505060405180910390f35b60015481565b6000809054906101000a900460ff1681565b60008060019054906101000a900473ffffffffffffffffffffffffffffffffffffffff1673ffffffffffffffffffffffffffffffffffffffff168273ffffffffffffffffffffffffffffffffffffffff16149050919050565b600060019054906101000a900473ffffffffffffffffffffffffffffffffffffffff1673ffffffffffffffffffffffffffffffffffffffff163373ffffffffffffffffffffffffffffffffffffffff161461025d57600080fd5b6000600154905082600060016101000a81548173ffffffffffffffffffffffffffffffffffffffff021916908373ffffffffffffffffffffffffffffffffffffffff160217905550816001819055507f5c621ab88898e6e9e72ba57f111357004c39d451619cf9004f8e0d90e1058cd66000809054906101000a900460ff1682600154604051808460ff1660ff168152602001838152602001828152602001935050505060405180910390a1505050565b600060019054906101000a900473ffffffffffffffffffffffffffffffffffffffff168156fea165627a7a72305820dda6a469536c8df6f1f550a47e6364bbd32eb871d32eaa47ef03dddbbe8eb6ff0029",
  "source": "pragma solidity ^0.5.0;\n/**\n * A Contract can create other contracts.\n * Represents an asset such as car, diamond, land-deed ....\n **/\n\n\ncontract  ChildContract {\n    // Represents the identifier for some kind of asset\n\n    uint8     public  identity;\n    address   public  owner;\n    bytes32   public  name;\n\n    modifier  OwnerOnly {if(msg.sender != owner)  revert(); else _;}\n    event     ChildOwnerTransfered(uint8 identity, bytes32 from, bytes32 to);\n\n    // Constructor\n    constructor(uint8 id, address own, bytes32 nm) public {\n      identity = id;\n      owner = own;\n      name = nm;\n    }\n\n    // transfer the ownership\n    function  transferOwnership (address newOwner, bytes32 nm) public OwnerOnly {\n        bytes32  former = name;\n        owner = newOwner;\n        name = nm;\n        emit ChildOwnerTransfered(identity, former, name);\n    }\n    // checks if caller is the owner\n    function  isOwner(address addr) public view returns(bool) {\n        return (addr == owner);\n    }\n}\n",
  "sourcePath": "/Users/udaydeshpande/elpt/project/project2/solidity/contracts/ChildContract.sol",
  "compiler": {
    "name": "solc",
    "version": "0.5.8+commit.23d335f2.Emscripten.clang"
  },
  "schemaVersion": "3.0.16",
  "updatedAt": "2019-10-15T21:00:21.867Z",
  "devdoc": {
    "methods": {}
  },
  "userdoc": {
    "methods": {},
    "notice": "A Contract can create other contracts. Represents an asset such as car, diamond, land-deed ....*"
  }
}