{
  "contractName": "ConstantsPayable",
  "abi": [
    {
      "constant": true,
      "inputs": [],
      "name": "lastReceived",
      "outputs": [
        {
          "name": "",
          "type": "uint256"
        }
      ],
      "payable": false,
      "stateMutability": "view",
      "type": "function"
    },
    {
      "constant": true,
      "inputs": [],
      "name": "lastCaller",
      "outputs": [
        {
          "name": "",
          "type": "string"
        }
      ],
      "payable": false,
      "stateMutability": "view",
      "type": "function"
    },
    {
      "constant": true,
      "inputs": [],
      "name": "lastSender",
      "outputs": [
        {
          "name": "",
          "type": "address"
        }
      ],
      "payable": false,
      "stateMutability": "view",
      "type": "function"
    },
    {
      "constant": true,
      "inputs": [],
      "name": "creationTime",
      "outputs": [
        {
          "name": "",
          "type": "uint256"
        }
      ],
      "payable": false,
      "stateMutability": "view",
      "type": "function"
    },
    {
      "inputs": [],
      "payable": false,
      "stateMutability": "nonpayable",
      "type": "constructor"
    },
    {
      "payable": true,
      "stateMutability": "payable",
      "type": "fallback"
    },
    {
      "constant": false,
      "inputs": [],
      "name": "getBalance",
      "outputs": [
        {
          "name": "",
          "type": "uint256"
        }
      ],
      "payable": false,
      "stateMutability": "nonpayable",
      "type": "function"
    },
    {
      "constant": false,
      "inputs": [
        {
          "name": "name",
          "type": "string"
        }
      ],
      "name": "setLastCaller",
      "outputs": [],
      "payable": false,
      "stateMutability": "nonpayable",
      "type": "function"
    },
    {
      "constant": false,
      "inputs": [
        {
          "name": "name",
          "type": "string"
        }
      ],
      "name": "receiveEthers",
      "outputs": [],
      "payable": true,
      "stateMutability": "payable",
      "type": "function"
    }
  ],
  "bytecode": "0x60806040526040518060400160405280600681526020017f4e4f5453455400000000000000000000000000000000000000000000000000008152506001908051906020019061004f92919061006e565b50600060035534801561006157600080fd5b5042600081905550610113565b828054600181600116156101000203166002900490600052602060002090601f016020900481019282601f106100af57805160ff19168380011785556100dd565b828001600101855582156100dd579182015b828111156100dc5782518255916020019190600101906100c1565b5b5090506100ea91906100ee565b5090565b61011091905b8082111561010c5760008160009055506001016100f4565b5090565b90565b6105a0806101226000396000f3fe6080604052600436106100705760003560e01c8063256fec881161004e578063256fec881461015f5780637895c036146101b6578063b08c8e451461027e578063d8270dce1461033957610070565b806312065fe0146100795780631b2961d6146100a45780632113522a146100cf575b34600381905550005b34801561008557600080fd5b5061008e610364565b6040518082815260200191505060405180910390f35b3480156100b057600080fd5b506100b9610383565b6040518082815260200191505060405180910390f35b3480156100db57600080fd5b506100e4610389565b6040518080602001828103825283818151815260200191508051906020019080838360005b83811015610124578082015181840152602081019050610109565b50505050905090810190601f1680156101515780820380516001836020036101000a031916815260200191505b509250505060405180910390f35b34801561016b57600080fd5b50610174610427565b604051808273ffffffffffffffffffffffffffffffffffffffff1673ffffffffffffffffffffffffffffffffffffffff16815260200191505060405180910390f35b3480156101c257600080fd5b5061027c600480360360208110156101d957600080fd5b81019080803590602001906401000000008111156101f657600080fd5b82018360208201111561020857600080fd5b8035906020019184600183028401116401000000008311171561022a57600080fd5b91908080601f016020809104026020016040519081016040528093929190818152602001838380828437600081840152601f19601f82011690508083019250505050505050919291929050505061044d565b005b6103376004803603602081101561029457600080fd5b81019080803590602001906401000000008111156102b157600080fd5b8201836020820111156102c357600080fd5b803590602001918460018302840111640100000000831117156102e557600080fd5b91908080601f016020809104026020016040519081016040528093929190818152602001838380828437600081840152601f19601f820116905080830192505050505050509192919290505050610467565b005b34801561034557600080fd5b5061034e6104c9565b6040518082815260200191505060405180910390f35b60003073ffffffffffffffffffffffffffffffffffffffff1631905090565b60035481565b60018054600181600116156101000203166002900480601f01602080910402602001604051908101604052809291908181526020018280546001816001161561010002031660029004801561041f5780601f106103f45761010080835404028352916020019161041f565b820191906000526020600020905b81548152906001019060200180831161040257829003601f168201915b505050505081565b600260009054906101000a900473ffffffffffffffffffffffffffffffffffffffff1681565b80600190805190602001906104639291906104cf565b5050565b33600260006101000a81548173ffffffffffffffffffffffffffffffffffffffff021916908373ffffffffffffffffffffffffffffffffffffffff1602179055503460038190555080600190805190602001906104c59291906104cf565b5050565b60005481565b828054600181600116156101000203166002900490600052602060002090601f016020900481019282601f1061051057805160ff191683800117855561053e565b8280016001018555821561053e579182015b8281111561053d578251825591602001919060010190610522565b5b50905061054b919061054f565b5090565b61057191905b8082111561056d576000816000905550600101610555565b5090565b9056fea165627a7a72305820c4fb69031f20fe5bbb8e3fdc1882feac2254de46b30548067bab018ef0b9dcef0029",
  "source": "pragma solidity ^0.5.0;\n\ncontract ConstantsPayable {\n\n    // MUST initialize storage here\n    uint    public  creationTime;\n    string  public  lastCaller = \"NOTSET\";\n\n    address public  lastSender;\n    uint    public  lastReceived=0;\n\n    function getBalance() public returns (uint) {\n      return address(this).balance;\n    }\n\n\n    // This function will NOT update the lastCaller if declared constant\n    // variable's value as it is marked constant\n    // Compiler implicitly takes contant as a view function\n    function  setLastCaller(string memory name) public {\n        lastCaller = name;\n    }\n\n    constructor() public {\n        // Storage constant initialization NOT allowed\n        // in constructor\n        creationTime = now;\n    }\n\n\n    // This function can receive ethers\n    function receiveEthers(string memory name)   payable public{\n        lastSender = msg.sender;\n        lastReceived = msg.value;\n        lastCaller = name;\n    }\n\n   /* function  getBalance() public view returns (uint){\n        return this.balance;\n    }*/\n\n    // Fallback function\n    // This function gets invoked when contract receives ethers\n    // without the function data. \n    function() payable external{\n        // Max gas that can be spent in this function is 2300\n        // msg.value has the number wei received\n        // msg.sender has the address of the sender\n\n        // As a BEST practice just log an Event here\n\n        // If you do not want to receive ethers in the contract\n        // then throw exception here\n        lastReceived = msg.value;\n    }\n}",
  "sourcePath": "/Users/udaydeshpande/elpt/project/project2/solidity/contracts/ConstantsPayable.sol",
  "compiler": {
    "name": "solc",
    "version": "0.5.8+commit.23d335f2.Emscripten.clang"
  },
  "schemaVersion": "3.0.16",
  "updatedAt": "2019-10-15T21:21:13.571Z",
  "devdoc": {
    "methods": {}
  },
  "userdoc": {
    "methods": {}
  }
}