{
  "contractName": "ContractFactory",
  "abi": [
    {
      "constant": true,
      "inputs": [],
      "name": "initialPrice",
      "outputs": [
        {
          "name": "",
          "type": "uint8"
        }
      ],
      "payable": false,
      "stateMutability": "view",
      "type": "function"
    },
    {
      "inputs": [
        {
          "name": "numParts",
          "type": "uint8"
        },
        {
          "name": "price",
          "type": "uint8"
        }
      ],
      "payable": false,
      "stateMutability": "nonpayable",
      "type": "constructor"
    },
    {
      "constant": false,
      "inputs": [
        {
          "name": "name",
          "type": "bytes32"
        }
      ],
      "name": "purchase",
      "outputs": [],
      "payable": true,
      "stateMutability": "payable",
      "type": "function"
    },
    {
      "constant": true,
      "inputs": [
        {
          "name": "childIndex",
          "type": "uint8"
        }
      ],
      "name": "getInfo",
      "outputs": [
        {
          "name": "",
          "type": "uint8"
        },
        {
          "name": "",
          "type": "address"
        },
        {
          "name": "",
          "type": "bytes32"
        }
      ],
      "payable": false,
      "stateMutability": "view",
      "type": "function"
    },
    {
      "constant": true,
      "inputs": [
        {
          "name": "childIndex",
          "type": "uint8"
        }
      ],
      "name": "getChildContractAddress",
      "outputs": [
        {
          "name": "",
          "type": "address"
        }
      ],
      "payable": false,
      "stateMutability": "view",
      "type": "function"
    },
    {
      "constant": true,
      "inputs": [
        {
          "name": "childIndex",
          "type": "uint8"
        }
      ],
      "name": "getOwnerName",
      "outputs": [
        {
          "name": "",
          "type": "bytes32"
        }
      ],
      "payable": false,
      "stateMutability": "view",
      "type": "function"
    },
    {
      "constant": true,
      "inputs": [],
      "name": "getChildrenCount",
      "outputs": [
        {
          "name": "",
          "type": "uint256"
        }
      ],
      "payable": false,
      "stateMutability": "view",
      "type": "function"
    }
  ],
  "bytecode": "0x608060405234801561001057600080fd5b50604051604080610dcf8339810180604052604081101561003057600080fd5b81019080805190602001909291908051906020019092919050505060008090505b8260ff168160ff161015610167576000813060405161006f9061018a565b808360ff1660ff1681526020018273ffffffffffffffffffffffffffffffffffffffff1673ffffffffffffffffffffffffffffffffffffffff168152602001807f2a2a2a000000000000000000000000000000000000000000000000000000000081525060200192505050604051809103906000f0801580156100f6573d6000803e3d6000fd5b5090806001815401808255809150509060018203906000526020600020016000909192909190916101000a81548173ffffffffffffffffffffffffffffffffffffffff021916908373ffffffffffffffffffffffffffffffffffffffff160217905550508080600101915050610051565b5080600160006101000a81548160ff021916908360ff1602179055505050610197565b610429806109a683390190565b610800806101a66000396000f3fe6080604052600436106100555760003560e01c80631d0806ae1461005a57806329a812221461008b5780635a0089d3146100dd5780635e6fc8b41461015b578063cc44561114610186578063e4d9de94146101b4575b600080fd5b34801561006657600080fd5b5061006f610246565b604051808260ff1660ff16815260200191505060405180910390f35b34801561009757600080fd5b506100c7600480360360208110156100ae57600080fd5b81019080803560ff169060200190929190505050610259565b6040518082815260200191505060405180910390f35b3480156100e957600080fd5b506101196004803603602081101561010057600080fd5b81019080803560ff169060200190929190505050610322565b604051808273ffffffffffffffffffffffffffffffffffffffff1673ffffffffffffffffffffffffffffffffffffffff16815260200191505060405180910390f35b34801561016757600080fd5b50610170610365565b6040518082815260200191505060405180910390f35b6101b26004803603602081101561019c57600080fd5b8101908080359060200190929190505050610371565b005b3480156101c057600080fd5b506101f0600480360360208110156101d757600080fd5b81019080803560ff169060200190929190505050610592565b604051808460ff1660ff1681526020018373ffffffffffffffffffffffffffffffffffffffff1673ffffffffffffffffffffffffffffffffffffffff168152602001828152602001935050505060405180910390f35b600160009054906101000a900460ff1681565b60008060008360ff168154811061026c57fe5b9060005260206000200160009054906101000a900473ffffffffffffffffffffffffffffffffffffffff1673ffffffffffffffffffffffffffffffffffffffff166306fdde036040518163ffffffff1660e01b815260040160206040518083038186803b1580156102dc57600080fd5b505afa1580156102f0573d6000803e3d6000fd5b505050506040513d602081101561030657600080fd5b8101908080519060200190929190505050905080915050919050565b6000808260ff168154811061033357fe5b9060005260206000200160009054906101000a900473ffffffffffffffffffffffffffffffffffffffff169050919050565b60008080549050905090565b600160009054906101000a900460ff1660ff1634101561039057600080fd5b60008090505b6000805490508160ff1610156105895760008160ff16815481106103b657fe5b9060005260206000200160009054906101000a900473ffffffffffffffffffffffffffffffffffffffff1673ffffffffffffffffffffffffffffffffffffffff16632f54bf6e306040518263ffffffff1660e01b8152600401808273ffffffffffffffffffffffffffffffffffffffff1673ffffffffffffffffffffffffffffffffffffffff16815260200191505060206040518083038186803b15801561045d57600080fd5b505afa158015610471573d6000803e3d6000fd5b505050506040513d602081101561048757600080fd5b81019080805190602001909291905050501561057c5760008160ff16815481106104ad57fe5b9060005260206000200160009054906101000a900473ffffffffffffffffffffffffffffffffffffffff1673ffffffffffffffffffffffffffffffffffffffff166389e6b5fb33846040518363ffffffff1660e01b8152600401808373ffffffffffffffffffffffffffffffffffffffff1673ffffffffffffffffffffffffffffffffffffffff16815260200182815260200192505050600060405180830381600087803b15801561055e57600080fd5b505af1158015610572573d6000803e3d6000fd5b505050505061058f565b8080600101915050610396565b50600080fd5b50565b6000806000808460ff16815481106105a657fe5b9060005260206000200160009054906101000a900473ffffffffffffffffffffffffffffffffffffffff1673ffffffffffffffffffffffffffffffffffffffff16632c159a1a6040518163ffffffff1660e01b815260040160206040518083038186803b15801561061657600080fd5b505afa15801561062a573d6000803e3d6000fd5b505050506040513d602081101561064057600080fd5b810190808051906020019092919050505060008560ff168154811061066157fe5b9060005260206000200160009054906101000a900473ffffffffffffffffffffffffffffffffffffffff1673ffffffffffffffffffffffffffffffffffffffff16638da5cb5b6040518163ffffffff1660e01b815260040160206040518083038186803b1580156106d157600080fd5b505afa1580156106e5573d6000803e3d6000fd5b505050506040513d60208110156106fb57600080fd5b810190808051906020019092919050505060008660ff168154811061071c57fe5b9060005260206000200160009054906101000a900473ffffffffffffffffffffffffffffffffffffffff1673ffffffffffffffffffffffffffffffffffffffff166306fdde036040518163ffffffff1660e01b815260040160206040518083038186803b15801561078c57600080fd5b505afa1580156107a0573d6000803e3d6000fd5b505050506040513d60208110156107b657600080fd5b8101908080519060200190929190505050925092509250919390925056fea165627a7a723058203f492204ddcc5829ae80c543343c20a73fb79386aee1f72b3bdf5a41b554caf70029608060405234801561001057600080fd5b506040516060806104298339810180604052606081101561003057600080fd5b81019080805190602001909291908051906020019092919080519060200190929190505050826000806101000a81548160ff021916908360ff16021790555081600060016101000a81548173ffffffffffffffffffffffffffffffffffffffff021916908373ffffffffffffffffffffffffffffffffffffffff16021790555080600181905550505050610360806100c96000396000f3fe608060405234801561001057600080fd5b50600436106100575760003560e01c806306fdde031461005c5780632c159a1a1461007a5780632f54bf6e1461009e57806389e6b5fb146100fa5780638da5cb5b14610148575b600080fd5b610064610192565b6040518082815260200191505060405180910390f35b610082610198565b604051808260ff1660ff16815260200191505060405180910390f35b6100e0600480360360208110156100b457600080fd5b81019080803573ffffffffffffffffffffffffffffffffffffffff1690602001909291905050506101aa565b604051808215151515815260200191505060405180910390f35b6101466004803603604081101561011057600080fd5b81019080803573ffffffffffffffffffffffffffffffffffffffff16906020019092919080359060200190929190505050610203565b005b61015061030e565b604051808273ffffffffffffffffffffffffffffffffffffffff1673ffffffffffffffffffffffffffffffffffffffff16815260200191505060405180910390f35b60015481565b6000809054906101000a900460ff1681565b60008060019054906101000a900473ffffffffffffffffffffffffffffffffffffffff1673ffffffffffffffffffffffffffffffffffffffff168273ffffffffffffffffffffffffffffffffffffffff16149050919050565b600060019054906101000a900473ffffffffffffffffffffffffffffffffffffffff1673ffffffffffffffffffffffffffffffffffffffff163373ffffffffffffffffffffffffffffffffffffffff161461025d57600080fd5b6000600154905082600060016101000a81548173ffffffffffffffffffffffffffffffffffffffff021916908373ffffffffffffffffffffffffffffffffffffffff160217905550816001819055507f5c621ab88898e6e9e72ba57f111357004c39d451619cf9004f8e0d90e1058cd66000809054906101000a900460ff1682600154604051808460ff1660ff168152602001838152602001828152602001935050505060405180910390a1505050565b600060019054906101000a900473ffffffffffffffffffffffffffffffffffffffff168156fea165627a7a72305820dda6a469536c8df6f1f550a47e6364bbd32eb871d32eaa47ef03dddbbe8eb6ff0029",
  "source": "pragma solidity ^0.5.0;\n\nimport \"./ChildContract.sol\";\n\n/**\n * This contract creates multiple child contracts.\n **/\ncontract ContractFactory {\n    // Maintains all the child contracts\n    ChildContract[] children;\n    // Price of the asset\n    uint8    public   initialPrice;\n\n    // Constructor\n    // Creates the child contracts\n    constructor(uint8  numParts, uint8   price) public {\n        for(uint8 i = 0; i < numParts; i++){\n            children.push(new ChildContract(i, address(this), \"***\"));\n        }\n        initialPrice = price;\n    }\n\n    // Anyone can pay the price and purchase the asset\n\n    function  purchase(bytes32 name) payable public {\n\n        if(msg.value < initialPrice) revert();\n\n        // Look for available asset i.e., one that is not sold yet\n        for(uint8 i = 0; i < children.length; i++){\n            // Check if contract factoy is the owner\n            if(children[i].isOwner(address(this))){\n                children[i].transferOwnership(msg.sender, name);\n                return;\n            }\n        }\n        // No more assets available - so throw an exception\n        revert();\n    }\n\n\n\n    // Returns the information about the child contract at specified index\n    function  getInfo(uint8 childIndex) public view returns(uint8, address, bytes32){\n        // Simply return the values\n        return (children[childIndex].identity(),children[childIndex].owner(),children[childIndex].name());\n    }\n\n    // Returns the child contract address\n    function  getChildContractAddress(uint8 childIndex) public view returns (address){\n        return address(children[childIndex]);\n    }\n\n    // Returns name of the owner based on the child index\n    function  getOwnerName(uint8 childIndex) public view returns(bytes32){\n        bytes32  namer = children[childIndex].name();\n        return namer;\n    }\n    // Returns the count of the children\n    function  getChildrenCount() public view returns (uint){\n        return children.length;\n    }\n  \n}",
  "sourcePath": "/Users/udaydeshpande/elpt/project/project2/solidity/contracts/ContractFactory.sol",
  "compiler": {
    "name": "solc",
    "version": "0.5.8+commit.23d335f2.Emscripten.clang"
  },
  "schemaVersion": "3.0.16",
  "updatedAt": "2019-10-15T21:21:13.578Z",
  "devdoc": {
    "methods": {}
  },
  "userdoc": {
    "methods": {},
    "notice": "This contract creates multiple child contracts.*"
  }
}