{
  "contractName": "DataLocation",
  "abi": [
    {
      "inputs": [],
      "payable": false,
      "stateMutability": "nonpayable",
      "type": "constructor"
    },
    {
      "constant": false,
      "inputs": [],
      "name": "localVariables",
      "outputs": [],
      "payable": false,
      "stateMutability": "nonpayable",
      "type": "function"
    },
    {
      "constant": false,
      "inputs": [
        {
          "name": "args",
          "type": "uint256[]"
        }
      ],
      "name": "defaultAction",
      "outputs": [
        {
          "name": "data",
          "type": "uint256[]"
        }
      ],
      "payable": false,
      "stateMutability": "nonpayable",
      "type": "function"
    },
    {
      "constant": false,
      "inputs": [],
      "name": "testFunction",
      "outputs": [],
      "payable": false,
      "stateMutability": "nonpayable",
      "type": "function"
    }
  ],
  "bytecode": "0x608060405234801561001057600080fd5b506102b0806100206000396000f3fe608060405234801561001057600080fd5b50600436106100415760003560e01c806379e784d014610046578063a2c716d314610050578063e16b4a9b1461015d575b600080fd5b61004e610167565b005b6101066004803603602081101561006657600080fd5b810190808035906020019064010000000081111561008357600080fd5b82018360208201111561009557600080fd5b803590602001918460208302840111640100000000831117156100b757600080fd5b919080806020026020016040519081016040528093929190818152602001838360200280828437600081840152601f19601f8201169050808301925050505050505091929192905050506101c1565b6040518080602001828103825283818151815260200191508051906020019060200280838360005b8381101561014957808201518184015260208101905061012e565b505050509050019250505060405180910390f35b61016561021b565b005b60608060018054806020026020016040519081016040528092919081815260200182805480156101b657602002820191906000526020600020905b8154815260200190600101908083116101a2575b505050505090505050565b6060600180548060200260200160405190810160405280929190818152602001828054801561020f57602002820191906000526020600020905b8154815260200190600101908083116101fb575b50505050509050919050565b610274600180548060200260200160405190810160405280929190818152602001828054801561026a57602002820191906000526020600020905b815481526020019060010190808311610256575b50505050506101c1565b506060610280816101c1565b505056fea165627a7a723058209d7b0517d076d8e63f7d98d04e98ccd800d4d123e37a1e17d9b924690cfd92260029",
  "source": "pragma solidity ^0.5.0;\n\n\ncontract DataLocation {\n    uint count; //Storage\n    uint[] allPoints; //Storage\n\n  constructor() public {\n  }\n\n  function localVariables() public {\n      //uint[] localArray; Must provide memory or storage keyword.\n      uint[] memory memoryArray;\n      uint[] memory pointer = allPoints;\n  }\n\n  //All arguments and return values must be in memory\n  function defaultAction(uint[] memory args ) public returns(uint[] memory data)  {\n    return allPoints;\n  }\n\n  function testFunction() public {\n    defaultAction(allPoints); //Ok to pass storage variable\n    uint[] memory memoryArray;\n    defaultAction(memoryArray);\n  }\n\n}\n",
  "sourcePath": "/Users/udaydeshpande/elpt/project/project2/solidity/contracts/DataLocation.sol",
  "compiler": {
    "name": "solc",
    "version": "0.5.8+commit.23d335f2.Emscripten.clang"
  },
  "schemaVersion": "3.0.16",
  "updatedAt": "2019-10-09T22:31:08.033Z",
  "devdoc": {
    "methods": {}
  },
  "userdoc": {
    "methods": {}
  }
}