{
  "contractName": "Events",
  "abi": [
    {
      "inputs": [],
      "payable": false,
      "stateMutability": "nonpayable",
      "type": "constructor"
    },
    {
      "anonymous": false,
      "inputs": [
        {
          "indexed": true,
          "name": "who",
          "type": "address"
        },
        {
          "indexed": false,
          "name": "name",
          "type": "string"
        },
        {
          "indexed": false,
          "name": "howmuch",
          "type": "uint256"
        }
      ],
      "name": "NewHighBid",
      "type": "event"
    },
    {
      "anonymous": false,
      "inputs": [
        {
          "indexed": true,
          "name": "who",
          "type": "address"
        },
        {
          "indexed": false,
          "name": "name",
          "type": "string"
        },
        {
          "indexed": false,
          "name": "howmuch",
          "type": "uint256"
        }
      ],
      "name": "BidFailed",
      "type": "event"
    },
    {
      "constant": false,
      "inputs": [
        {
          "name": "name",
          "type": "string"
        }
      ],
      "name": "bid",
      "outputs": [],
      "payable": true,
      "stateMutability": "payable",
      "type": "function"
    },
    {
      "constant": true,
      "inputs": [],
      "name": "getHighBidder",
      "outputs": [
        {
          "name": "name",
          "type": "string"
        }
      ],
      "payable": false,
      "stateMutability": "view",
      "type": "function"
    }
  ],
  "bytecode": "0x608060405262069780420160005534801561001957600080fd5b506103e8600160020181905550610506806100356000396000f3fe6080604052600436106100295760003560e01c80637aef951c1461002e5780637d1184f0146100e9575b600080fd5b6100e76004803603602081101561004457600080fd5b810190808035906020019064010000000081111561006157600080fd5b82018360208201111561007357600080fd5b8035906020019184600183028401116401000000008311171561009557600080fd5b91908080601f016020809104026020016040519081016040528093929190818152602001838380828437600081840152601f19601f820116905080830192505050505050509192919290505050610179565b005b3480156100f557600080fd5b506100fe61038f565b6040518080602001828103825283818151815260200191508051906020019080838360005b8381101561013e578082015181840152602081019050610123565b50505050905090810190601f16801561016b5780820380516001836020036101000a031916815260200191505b509250505060405180910390f35b60005442101561038757600a600160020154013411156102c25761019b610433565b33600160000160006101000a81548173ffffffffffffffffffffffffffffffffffffffff021916908373ffffffffffffffffffffffffffffffffffffffff160217905550806001800190805190602001906101f7929190610435565b50346001600201819055503373ffffffffffffffffffffffffffffffffffffffff167fd7f5ff45ff6e232308acbf841d8134c8c65dd893722727b64eef24b489fb893d82346040518080602001838152602001828103825284818151815260200191508051906020019080838360005b83811015610282578082015181840152602081019050610267565b50505050905090810190601f1680156102af5780820380516001836020036101000a031916815260200191505b50935050505060405180910390a2610382565b3373ffffffffffffffffffffffffffffffffffffffff167faab6e917b2089e850050512474058e20b2f6dfb93b76ac38d1921588535627d282346040518080602001838152602001828103825284818151815260200191508051906020019080838360005b83811015610342578082015181840152602081019050610327565b50505050905090810190601f16801561036f5780820380516001836020036101000a031916815260200191505b50935050505060405180910390a2600080fd5b61038c565b600080fd5b50565b6060600180018054600181600116156101000203166002900480601f0160208091040260200160405190810160405280929190818152602001828054600181600116156101000203166002900480156104295780601f106103fe57610100808354040283529160200191610429565b820191906000526020600020905b81548152906001019060200180831161040c57829003601f168201915b5050505050905090565b565b828054600181600116156101000203166002900490600052602060002090601f016020900481019282601f1061047657805160ff19168380011785556104a4565b828001600101855582156104a4579182015b828111156104a3578251825591602001919060010190610488565b5b5090506104b191906104b5565b5090565b6104d791905b808211156104d35760008160009055506001016104bb565b5090565b9056fea165627a7a723058206e1c22084c19d35ff227078c735d390f3f1bc3a651498a94efef7d7a032c3ea20029",
  "source": "pragma solidity ^0.5.0;\n\n/**\n * Part of a course on Blockchain\n * Shows how events are used by contracts\n **/\ncontract Events {\n\n    // Represents the time when the bidding will end\n    uint    biddingEnds = now + 5 days;\n    \n    struct HighBidder {\n        address   bidder;\n        string    name;\n        uint      bid;\n    }\n\n    HighBidder  highBidder;\n\n    // Events emitted by contract\n    // Whenever a high bid is received\n    event NewHighBid(address indexed who, string name, uint howmuch);\n    // High bid preceded by this event\n    event BidFailed(address indexed who, string name, uint howmuch);\n\n    // Ensures that bid can be received i.e, auction not ended\n    modifier timed {\n        if(now < biddingEnds) {\n            _;\n        } else {\n            /**throw an exception */\n            revert();\n        }\n    }\n\n    \n\n    constructor() public{\n        // Starts the bidding at 1000 wei\n        highBidder.bid = 1000;\n    }\n\n    function  bid(string memory name) payable public timed {\n        // Bids allowed in increments of 10 wei\n        if(msg.value > (highBidder.bid + 10)) {\n            // Return the loser's bid\n            returnBidToLoser();\n            // Make the caller the highBidder\n            highBidder.bidder = msg.sender;\n            highBidder.name = name;\n            highBidder.bid = msg.value;\n            // Received a high bid - emit event\n            emit NewHighBid(msg.sender, name, msg.value);\n          } else {\n            // Received bid less than high bid emit event\n            emit BidFailed(msg.sender, name, msg.value);\n\n            // throwing exception would return the ethers\n            revert();\n        }\n    }\n\n    function  getHighBidder() public view returns(string memory name){\n        name = highBidder.name;\n    }\n\n    // Make sure this function is private\n    function   returnBidToLoser() private{\n      // Here the weis are returned to the address of the loser\n      // Left to be coded\n    }\n\n}",
  "sourcePath": "/Users/udaydeshpande/elpt/project/project2/solidity/contracts/Events.sol",
  "compiler": {
    "name": "solc",
    "version": "0.5.8+commit.23d335f2.Emscripten.clang"
  },
  "schemaVersion": "3.0.16",
  "updatedAt": "2019-10-15T21:21:13.574Z",
  "devdoc": {
    "methods": {}
  },
  "userdoc": {
    "methods": {},
    "notice": "Part of a course on Blockchain Shows how events are used by contracts*"
  }
}