{
  "contractName": "Funcs",
  "abi": [
    {
      "inputs": [
        {
          "name": "name",
          "type": "string"
        },
        {
          "name": "age",
          "type": "uint8"
        }
      ],
      "payable": false,
      "stateMutability": "nonpayable",
      "type": "constructor"
    },
    {
      "constant": false,
      "inputs": [
        {
          "name": "name",
          "type": "string"
        },
        {
          "name": "age",
          "type": "uint8"
        }
      ],
      "name": "setOwnerInfo",
      "outputs": [],
      "payable": false,
      "stateMutability": "nonpayable",
      "type": "function"
    },
    {
      "constant": false,
      "inputs": [
        {
          "name": "greaterThan",
          "type": "uint8"
        }
      ],
      "name": "getOwnerInfo",
      "outputs": [
        {
          "name": "name",
          "type": "string"
        },
        {
          "name": "age",
          "type": "uint8"
        }
      ],
      "payable": false,
      "stateMutability": "nonpayable",
      "type": "function"
    },
    {
      "constant": false,
      "inputs": [],
      "name": "getOwnerInfo",
      "outputs": [
        {
          "name": "name",
          "type": "string"
        },
        {
          "name": "age",
          "type": "uint8"
        }
      ],
      "payable": false,
      "stateMutability": "nonpayable",
      "type": "function"
    },
    {
      "constant": false,
      "inputs": [],
      "name": "multiReturnCaller",
      "outputs": [
        {
          "name": "n",
          "type": "string"
        },
        {
          "name": "a",
          "type": "uint8"
        }
      ],
      "payable": false,
      "stateMutability": "nonpayable",
      "type": "function"
    },
    {
      "constant": false,
      "inputs": [],
      "name": "getOwnerName",
      "outputs": [
        {
          "name": "",
          "type": "string"
        }
      ],
      "payable": false,
      "stateMutability": "nonpayable",
      "type": "function"
    },
    {
      "constant": false,
      "inputs": [],
      "name": "getOwnerAge",
      "outputs": [
        {
          "name": "age",
          "type": "uint8"
        }
      ],
      "payable": false,
      "stateMutability": "nonpayable",
      "type": "function"
    }
  ],
  "bytecode": "0x608060405234801561001057600080fd5b506040516108933803806108938339810180604052604081101561003357600080fd5b81019080805164010000000081111561004b57600080fd5b8281019050602081018481111561006157600080fd5b815185600182028301116401000000008211171561007e57600080fd5b50509291906020018051906020019092919050505081600090805190602001906100a99291906100cc565b5080600160006101000a81548160ff021916908360ff1602179055505050610171565b828054600181600116156101000203166002900490600052602060002090601f016020900481019282601f1061010d57805160ff191683800117855561013b565b8280016001018555821561013b579182015b8281111561013a57825182559160200191906001019061011f565b5b509050610148919061014c565b5090565b61016e91905b8082111561016a576000816000905550600101610152565b5090565b90565b610713806101806000396000f3fe608060405234801561001057600080fd5b50600436106100625760003560e01c8063145ef6e914610067578063ac3ce432146100ea578063af7bfc781461017a578063badbcfe814610231578063d5f7c53b14610255578063facf83231461031d575b600080fd5b61006f6103ad565b6040518080602001828103825283818151815260200191508051906020019080838360005b838110156100af578082015181840152602081019050610094565b50505050905090810190601f1680156100dc5780820380516001836020036101000a031916815260200191505b509250505060405180910390f35b6100f261044f565b60405180806020018360ff1660ff168152602001828103825284818151815260200191508051906020019080838360005b8381101561013e578082015181840152602081019050610123565b50505050905090810190601f16801561016b5780820380516001836020036101000a031916815260200191505b50935050505060405180910390f35b6101a96004803603602081101561019057600080fd5b81019080803560ff169060200190929190505050610469565b60405180806020018360ff1660ff168152602001828103825284818151815260200191508051906020019080838360005b838110156101f55780820151818401526020810190506101da565b50505050905090810190601f1680156102225780820380516001836020036101000a031916815260200191505b50935050505060405180910390f35b61023961053f565b604051808260ff1660ff16815260200191505060405180910390f35b61031b6004803603604081101561026b57600080fd5b810190808035906020019064010000000081111561028857600080fd5b82018360208201111561029a57600080fd5b803590602001918460018302840111640100000000831117156102bc57600080fd5b91908080601f016020809104026020016040519081016040528093929190818152602001838380828437600081840152601f19601f820116905080830192505050505050509192919290803560ff169060200190929190505050610556565b005b61032561058c565b60405180806020018360ff1660ff168152602001828103825284818151815260200191508051906020019080838360005b83811015610371578082015181840152602081019050610356565b50505050905090810190601f16801561039e5780820380516001836020036101000a031916815260200191505b50935050505060405180910390f35b606060008054600181600116156101000203166002900480601f0160208091040260200160405190810160405280929190818152602001828054600181600116156101000203166002900480156104455780601f1061041a57610100808354040283529160200191610445565b820191906000526020600020905b81548152906001019060200180831161042857829003601f168201915b5050505050905090565b606060006060600061045f61058c565b9150915050509091565b606060008260ff16600160009054906101000a900460ff1660ff16111561053a5760008054600181600116156101000203166002900480601f0160208091040260200160405190810160405280929190818152602001828054600181600116156101000203166002900480156105205780601f106104f557610100808354040283529160200191610520565b820191906000526020600020905b81548152906001019060200180831161050357829003601f168201915b50505050509150600160009054906101000a900460ff1690505b915091565b6000600160009054906101000a900460ff16905090565b816000908051906020019061056c929190610642565b5080600160006101000a81548160ff021916908360ff1602179055505050565b60606000808054600181600116156101000203166002900480601f0160208091040260200160405190810160405280929190818152602001828054600181600116156101000203166002900480156106255780601f106105fa57610100808354040283529160200191610625565b820191906000526020600020905b81548152906001019060200180831161060857829003601f168201915b50505050509150600160009054906101000a900460ff1690509091565b828054600181600116156101000203166002900490600052602060002090601f016020900481019282601f1061068357805160ff19168380011785556106b1565b828001600101855582156106b1579182015b828111156106b0578251825591602001919060010190610695565b5b5090506106be91906106c2565b5090565b6106e491905b808211156106e05760008160009055506001016106c8565b5090565b9056fea165627a7a723058209f62cc7fcc9dd90e47d3ac1aee3aeafc93cd297b11af3d68f73af90ddc3987b10029",
  "source": "pragma solidity ^0.5.0;\n\ncontract Funcs {\n\n  string  ownerName;\n  uint8   ownerAge;\n\n  // Constructor\n  constructor(string memory name, uint8 age) public {\n    ownerName = name;\n    ownerAge = age;\n  }\n\n  // Sets the name\n  function  setOwnerInfo(string memory name, uint8 age) public {\n    ownerName = name;\n    ownerAge = age;\n  }\n\n  function secretFunction() private {\n    // Not available outside this contract\n  }\n\n  function  getOwnerInfo() public returns (string memory name, uint8 age){\n    name = ownerName;\n    age = ownerAge;\n  }\n\n\n  // Shows that function overloading is supported\n  // Returns owner data only if age > greaterThan otherwise all 0s\n  // PS: Truffle framework seem to have issues with overloaded functions\n  //     Uncommenting this *may* give unexpected test results\n  function  getOwnerInfo(uint8 greaterThan) public returns (string memory name, uint8 age){\n    if(ownerAge > greaterThan){ \n      name = ownerName;\n      age = ownerAge;\n    }\n  }\n\n\n  // Shows how multiple values are received from a function call\n  function  multiReturnCaller() public returns (string memory n,uint8 a){\n    // Create a tuple\n    (string memory name, uint8 age) = getOwnerInfo();\n  }\n\n\n  // Get the name\n  function  getOwnerName() public returns (string memory) {\n\n    return ownerName;\n  }\n\n  // Get the age\n  function  getOwnerAge() public returns(uint8 age){\n    age = ownerAge;\n    //return ownerAge;\n  }\n\n}",
  "sourcePath": "/Users/udaydeshpande/elpt/project/project2/solidity/contracts/Funcs.sol",
  "compiler": {
    "name": "solc",
    "version": "0.5.8+commit.23d335f2.Emscripten.clang"
  },
  "schemaVersion": "3.0.16",
  "updatedAt": "2019-10-15T21:21:13.558Z",
  "devdoc": {
    "methods": {}
  },
  "userdoc": {
    "methods": {}
  }
}