{
  "contractName": "FuncTypesCaller",
  "abi": [
    {
      "constant": false,
      "inputs": [
        {
          "name": "funcTypesAddr",
          "type": "address"
        },
        {
          "name": "str",
          "type": "string"
        }
      ],
      "name": "callExternal",
      "outputs": [
        {
          "name": "",
          "type": "uint256"
        }
      ],
      "payable": false,
      "stateMutability": "nonpayable",
      "type": "function"
    },
    {
      "constant": false,
      "inputs": [
        {
          "name": "funcTypesAddr",
          "type": "address"
        },
        {
          "name": "str",
          "type": "string"
        }
      ],
      "name": "callAsTransaction",
      "outputs": [
        {
          "name": "",
          "type": "bytes"
        }
      ],
      "payable": false,
      "stateMutability": "nonpayable",
      "type": "function"
    }
  ],
  "bytecode": "0x608060405234801561001057600080fd5b5061047c806100206000396000f3fe608060405234801561001057600080fd5b50600436106100365760003560e01c806310725fe01461003b57806348d5b907146100e8575b600080fd5b6100d26004803603604081101561005157600080fd5b81019080803573ffffffffffffffffffffffffffffffffffffffff1690602001909291908035906020019064010000000081111561008e57600080fd5b8201836020820111156100a057600080fd5b803590602001918460018302840111640100000000831117156100c257600080fd5b90919293919293905050506101fa565b6040518082815260200191505060405180910390f35b61017f600480360360408110156100fe57600080fd5b81019080803573ffffffffffffffffffffffffffffffffffffffff1690602001909291908035906020019064010000000081111561013b57600080fd5b82018360208201111561014d57600080fd5b8035906020019184600183028401116401000000008311171561016f57600080fd5b90919293919293905050506102c4565b6040518080602001828103825283818151815260200191508051906020019080838360005b838110156101bf5780820151818401526020810190506101a4565b50505050905090810190601f1680156101ec5780820380516001836020036101000a031916815260200191505b509250505060405180910390f35b6000808490508073ffffffffffffffffffffffffffffffffffffffff16630d35b47385856040518363ffffffff1660e01b815260040180806020018281038252848482818152602001925080828437600081840152601f19601f8201169050808301925050509350505050602060405180830381600087803b15801561027f57600080fd5b505af1158015610293573d6000803e3d6000fd5b505050506040513d60208110156102a957600080fd5b81019080805190602001909291905050509150509392505050565b6060600060608573ffffffffffffffffffffffffffffffffffffffff16858560405160240180806020018281038252848482818152602001925080828437600081840152601f19601f82011690508083019250505093505050506040516020818303038152906040527f0d35b473000000000000000000000000000000000000000000000000000000007bffffffffffffffffffffffffffffffffffffffffffffffffffffffff19166020820180517bffffffffffffffffffffffffffffffffffffffffffffffffffffffff83818316178352505050506040518082805190602001908083835b602083106103ce57805182526020820191506020810190506020830392506103ab565b6001836020036101000a0380198251168184511680821785525050505050509050019150506000604051808303816000865af19150503d8060008114610430576040519150601f19603f3d011682016040523d82523d6000602084013e610435565b606091505b50915091508161044457600080fd5b8092505050939250505056fea165627a7a72305820766e5d8830e9abc7b473b4042b0203de79c75ebf838a2ae5c8887bfd04735b5f0029",
  "source": "pragma solidity ^0.5.0;\n\n// This is needed for getting the function signature\n// You can avoid this inclusion by using the address.call\n// by using funtion callAsTransaction\nimport \"./FuncTypes.sol\";\n\n/**\n * Demonstrates how a contract calls another contract\n **/\ncontract FuncTypesCaller {\n  \n  // Function takes the address of FuncTypes & String\n  function  callExternal(address funcTypesAddr, string calldata str) external returns (uint){\n      FuncTypes funcTypes = FuncTypes(funcTypesAddr);\n      return funcTypes.indirectCall(str);\n  }\n\n  function  callAsTransaction(address funcTypesAddr, string calldata str) external returns (bytes memory){\n      (bool flag, bytes memory returndata ) = funcTypesAddr.call(abi.encodeWithSignature(\"indirectCall(string)\", str));\n      if(!flag) /**throw;*Deprecated*/ revert();\n\n      return returndata;\n  }\n}\n",
  "sourcePath": "/Users/udaydeshpande/elpt/project/project2/solidity/contracts/FuncTypesCaller.sol",
  "compiler": {
    "name": "solc",
    "version": "0.5.8+commit.23d335f2.Emscripten.clang"
  },
  "schemaVersion": "3.0.16",
  "updatedAt": "2019-10-15T21:21:13.570Z",
  "devdoc": {
    "methods": {}
  },
  "userdoc": {
    "methods": {},
    "notice": "Demonstrates how a contract calls another contract*"
  }
}