{
  "contractName": "FuncTypes",
  "abi": [
    {
      "inputs": [],
      "payable": false,
      "stateMutability": "nonpayable",
      "type": "constructor"
    },
    {
      "constant": false,
      "inputs": [
        {
          "name": "data",
          "type": "string"
        }
      ],
      "name": "indirectCall",
      "outputs": [
        {
          "name": "len",
          "type": "uint256"
        }
      ],
      "payable": false,
      "stateMutability": "nonpayable",
      "type": "function"
    }
  ],
  "bytecode": "0x608060405234801561001057600080fd5b5061004860201b61012e17600160006101000a81548167ffffffffffffffff021916908367ffffffffffffffff160217905550610053565b600081519050919050565b610165806100626000396000f3fe608060405234801561001057600080fd5b506004361061002b5760003560e01c80630d35b47314610030575b600080fd5b6100a76004803603602081101561004657600080fd5b810190808035906020019064010000000081111561006357600080fd5b82018360208201111561007557600080fd5b8035906020019184600183028401116401000000008311171561009757600080fd5b90919293919293905050506100bd565b6040518082815260200191505060405180910390f35b600061012683838080601f016020809104026020016040519081016040528093929190818152602001838380828437600081840152601f19601f82011690508083019250505050505050600160009054906101000a900467ffffffffffffffff1663ffffffff16565b905092915050565b60008151905091905056fea165627a7a723058205afbac840d0ce871377403aff2175281b22ab42d2e1af579b79763e225c6320f0029",
  "source": "pragma solidity ^0.5.0;\n\n/**\n * Demonstrates use of the function type variables\n **/\ncontract FuncTypes {\n\n    bytes  private secret;\n\n    // Reference to an internal function\n    function(string memory) internal returns(uint) lengthFunctionVar;\n\n    // Constructor\n    constructor() public{\n      lengthFunctionVar = actualLengthFunction;\n    }\n\n    // This method should NOT be available for calls from OUTSIDE the contract context\n    function  actualLengthFunction(string memory str)  private returns (uint len){\n      len = bytes(str).length;\n    }\n\n    // For demo purposes\n    // Calls using the state variable reference rather than actual function\n    function  indirectCall(string calldata data) external returns(uint len){\n      len = lengthFunctionVar(data);\n    }\n}",
  "sourcePath": "/Users/udaydeshpande/elpt/project/project2/solidity/contracts/FuncTypes.sol",
  "compiler": {
    "name": "solc",
    "version": "0.5.8+commit.23d335f2.Emscripten.clang"
  },
  "schemaVersion": "3.0.16",
  "updatedAt": "2019-10-15T21:21:13.569Z",
  "devdoc": {
    "methods": {}
  },
  "userdoc": {
    "methods": {},
    "notice": "Demonstrates use of the function type variables*"
  }
}