{
  "contractName": "Globals",
  "abi": [
    {
      "constant": true,
      "inputs": [],
      "name": "lastCaller",
      "outputs": [
        {
          "name": "",
          "type": "string"
        }
      ],
      "payable": false,
      "stateMutability": "view",
      "type": "function"
    },
    {
      "constant": false,
      "inputs": [
        {
          "name": "num",
          "type": "int256"
        }
      ],
      "name": "someComplexProcess",
      "outputs": [],
      "payable": false,
      "stateMutability": "nonpayable",
      "type": "function"
    },
    {
      "constant": true,
      "inputs": [],
      "name": "etherUnitsTest",
      "outputs": [
        {
          "name": "",
          "type": "bool"
        }
      ],
      "payable": false,
      "stateMutability": "pure",
      "type": "function"
    },
    {
      "constant": true,
      "inputs": [],
      "name": "timeUnitsTest",
      "outputs": [
        {
          "name": "",
          "type": "uint256"
        }
      ],
      "payable": false,
      "stateMutability": "view",
      "type": "function"
    },
    {
      "constant": true,
      "inputs": [
        {
          "name": "distance",
          "type": "uint256"
        },
        {
          "name": "units",
          "type": "uint256"
        }
      ],
      "name": "calculateFutureTime",
      "outputs": [
        {
          "name": "",
          "type": "uint256"
        }
      ],
      "payable": false,
      "stateMutability": "view",
      "type": "function"
    },
    {
      "constant": true,
      "inputs": [],
      "name": "getBlockInformation",
      "outputs": [
        {
          "name": "number",
          "type": "uint256"
        },
        {
          "name": "hash",
          "type": "bytes32"
        },
        {
          "name": "coinbase",
          "type": "address"
        },
        {
          "name": "difficulty",
          "type": "uint256"
        }
      ],
      "payable": false,
      "stateMutability": "view",
      "type": "function"
    },
    {
      "constant": true,
      "inputs": [],
      "name": "getMsgInformation",
      "outputs": [
        {
          "name": "data",
          "type": "bytes"
        },
        {
          "name": "sig",
          "type": "bytes4"
        },
        {
          "name": "sender",
          "type": "address"
        }
      ],
      "payable": false,
      "stateMutability": "view",
      "type": "function"
    },
    {
      "constant": false,
      "inputs": [
        {
          "name": "name",
          "type": "string"
        }
      ],
      "name": "revertBehavior",
      "outputs": [
        {
          "name": "",
          "type": "bool"
        }
      ],
      "payable": false,
      "stateMutability": "nonpayable",
      "type": "function"
    },
    {
      "constant": true,
      "inputs": [
        {
          "name": "str",
          "type": "string"
        }
      ],
      "name": "callCrypto",
      "outputs": [
        {
          "name": "dat",
          "type": "bytes32[5]"
        }
      ],
      "payable": false,
      "stateMutability": "pure",
      "type": "function"
    }
  ],
  "bytecode": "0x60806040526040518060400160405280600781526020017f6e6f742d736574000000000000000000000000000000000000000000000000008152506000908051906020019061004f929190610067565b50606460015534801561006157600080fd5b5061010c565b828054600181600116156101000203166002900490600052602060002090601f016020900481019282601f106100a857805160ff19168380011785556100d6565b828001600101855582156100d6579182015b828111156100d55782518255916020019190600101906100ba565b5b5090506100e391906100e7565b5090565b61010991905b808211156101055760008160009055506001016100ed565b5090565b90565b610a5a8061011b6000396000f3fe608060405234801561001057600080fd5b50600436106100935760003560e01c80638e663b06116100665780638e663b06146102525780639490a4d81461034d578063be99478e1461037b578063d3660c1c146103c7578063de7066f11461049a57610093565b80630c317438146100985780632113522a146100ba578063584faff51461013d5780637ebe808714610234575b600080fd5b6100a06104f9565b604051808215151515815260200191505060405180910390f35b6100c2610535565b6040518080602001828103825283818151815260200191508051906020019080838360005b838110156101025780820151818401526020810190506100e7565b50505050905090810190601f16801561012f5780820380516001836020036101000a031916815260200191505b509250505060405180910390f35b6101f66004803603602081101561015357600080fd5b810190808035906020019064010000000081111561017057600080fd5b82018360208201111561018257600080fd5b803590602001918460018302840111640100000000831117156101a457600080fd5b91908080601f016020809104026020016040519081016040528093929190818152602001838380828437600081840152601f19601f8201169050808301925050505050505091929192905050506105d3565b6040518082600560200280838360005b83811015610221578082015181840152602081019050610206565b5050505090500191505060405180910390f35b61023c610806565b6040518082815260200191505060405180910390f35b61025a610813565b6040518080602001847bffffffffffffffffffffffffffffffffffffffffffffffffffffffff19167bffffffffffffffffffffffffffffffffffffffffffffffffffffffff191681526020018373ffffffffffffffffffffffffffffffffffffffff1673ffffffffffffffffffffffffffffffffffffffff168152602001828103825285818151815260200191508051906020019080838360005b838110156103105780820151818401526020810190506102f5565b50505050905090810190601f16801561033d5780820380516001836020036101000a031916815260200191505b5094505050505060405180910390f35b6103796004803603602081101561036357600080fd5b810190808035906020019092919050505061088f565b005b6103b16004803603604081101561039157600080fd5b8101908080359060200190929190803590602001909291905050506108a9565b6040518082815260200191505060405180910390f35b610480600480360360208110156103dd57600080fd5b81019080803590602001906401000000008111156103fa57600080fd5b82018360208201111561040c57600080fd5b8035906020019184600183028401116401000000008311171561042e57600080fd5b91908080601f016020809104026020016040519081016040528093929190818152602001838380828437600081840152601f19601f82011690508083019250505050505050919291929050505061091a565b604051808215151515815260200191505060405180910390f35b6104a261094b565b604051808581526020018481526020018373ffffffffffffffffffffffffffffffffffffffff1673ffffffffffffffffffffffffffffffffffffffff16815260200182815260200194505050505060405180910390f35b600080670de0b6b3a7640000801490506001801490506000678ac7230489e8000090506801158e460913d0000060028202149150819250505090565b60008054600181600116156101000203166002900480601f0160208091040260200160405190810160405280929190818152602001828054600181600116156101000203166002900480156105cb5780601f106105a0576101008083540402835291602001916105cb565b820191906000526020600020905b8154815290600101906020018083116105ae57829003601f168201915b505050505081565b6105db610967565b8180519060200120816000600581106105f057fe5b6020020181815250506002826040518082805190602001908083835b6020831061062f578051825260208201915060208101905060208303925061060c565b6001836020036101000a038019825116818451168082178552505050505050905001915050602060405180830381855afa158015610671573d6000803e3d6000fd5b5050506040513d602081101561068657600080fd5b8101908080519060200190929190505050816002600581106106a457fe5b60200201818152505060405160200180807f4142000000000000000000000000000000000000000000000000000000000000815250600201807f4344000000000000000000000000000000000000000000000000000000000000815250600201807f45000000000000000000000000000000000000000000000000000000000000008152506001019050604051602081830303815290604052805190602001208160036005811061075157fe5b6020020181815250506003826040518082805190602001908083835b60208310610790578051825260208201915060208101905060208303925061076d565b6001836020036101000a038019825116818451168082178552505050505050905001915050602060405180830381855afa1580156107d2573d6000803e3d6000fd5b5050506040515160601b6bffffffffffffffffffffffff1916816004600581106107f857fe5b602002018181525050919050565b6000804290508091505090565b60606000806000368080601f016020809104026020016040519081016040528093929190818152602001838380828437600081840152601f19601f8201169050808301925050505050505092506000357fffffffff00000000000000000000000000000000000000000000000000000000169150339050909192565b80600154036001819055506000600154136108a657fe5b50565b60008060028111156108b757fe5b8214156108cb57603c830242019050610914565b600160028111156108d857fe5b8214156108ed57610e10830242019050610914565b6002808111156108f957fe5b82141561090f5762015180830242019050610914565b600190505b92915050565b60008160009080519060200190610932929190610989565b5060008251141561094257600080fd5b60019050919050565b6000806000804393506001840340925041915044905090919293565b6040518060a00160405280600590602082028038833980820191505090505090565b828054600181600116156101000203166002900490600052602060002090601f016020900481019282601f106109ca57805160ff19168380011785556109f8565b828001600101855582156109f8579182015b828111156109f75782518255916020019190600101906109dc565b5b509050610a059190610a09565b5090565b610a2b91905b80821115610a27576000816000905550600101610a0f565b5090565b9056fea165627a7a7230582046f86ffc8e942b812cbb24044f65a1d8d479c931a072187056f68e3b918e007a0029",
  "source": "pragma solidity ^0.5.0;\n\n/**\n * Demonstrates the use of the global variables \n * and functions\n **/\ncontract Globals {\n\n    enum  TimeUnit  {Minute, Hour, Day}\n\n    string  public lastCaller = \"not-set\";\n  \n    // someVariable should always be > 0 otherwise its a BUG\n    int    someVariable = 100;\n\n    function  someComplexProcess(int num) public {\n        // ....\n        someVariable = someVariable - num;\n        // some variable gets manupulated in the code\n\n        // If value of someVariable goes below 0 then throw an exception\n        assert(someVariable > 0);\n    }\n\n\n    // Demonstrates the use of the ether subdenominations\n    function  etherUnitsTest() public pure returns(bool) {\n        // True\n        bool flag = (1 ether == 1000 finney);\n        // True\n        flag = (1 wei == 0.000000000000000001 ether);\n\n        // True\n        uint amount = 10 ether;\n        flag = (amount*2 == 20000 finney);\n\n        return flag;\n    }\n\n    // Demonstrates the use of the time units\n    function  timeUnitsTest() public view returns (uint) {\n        uint  tim = now;\n        return tim;\n    }\n\n    /**\n    * Calculates the time in future\n    * Takes a number & a unit for the number e.g., 10 minute, 10 Hour\n    **/\n    function  calculateFutureTime(uint distance, uint units)  public view returns (uint) {\n        if (units == uint(TimeUnit.Minute)) {\n            return (now + distance*1 minutes);\n        } else if (units == uint(TimeUnit.Hour)) {\n            return (now + distance*1 hours);\n        } else if (units == uint(TimeUnit.Day)) {\n            return (now + distance*1 days);\n        }\n        return 1;\n    }\n\n\n    // Demonstrates the use of block object\n    function  getBlockInformation() public view returns (uint number, bytes32 hash, address coinbase, uint difficulty) {\n        number = block.number; // Previous block\n        hash = blockhash(number - 1); // -1 because excluding current\n        // Current block\n        coinbase = block.coinbase;\n        difficulty = block.difficulty;\n    }\n\n    // Demonstrates the use of the msg object\n    function getMsgInformation() public view returns (bytes memory data, bytes4  sig, address sender) {\n        data = msg.data;\n        sig = msg.sig;\n        sender = msg.sender;\n    }\n\n    function  revertBehavior(string memory name) public returns (bool) {\n        lastCaller = name;\n        // In Ganache or TestRPC throw cannot be tested (there is a way but its kludgy)\n        // Uncommenting this line would lead to exception related to JUMP \n\n        // Check if length of the string is zero\n        if (bytes(name).length == 0) {\n            revert();\n        }\n\n        // The above lines of code may be replaced with this\n        //require(bytes(name).length > 0);\n        \n        return true;\n    }\n\n    function  callCrypto(string memory str) public pure returns (bytes32[5] memory dat) {\n        dat[0] = keccak256(bytes(str));\n        \n        //dat[1] = sha3(str);  // sha3 is deprecated\n        \n        dat[2] = sha256(bytes(str));\n        \n        // Tightly Packed example:  same as sha3(\"ABCDE\")\n        //dat[3] = sha3(\"AB\",\"C\",\"DE\"); // sha3 is deprecated\n        dat[3] = keccak256(abi.encodePacked(\"AB\", \"CD\", \"E\"));\n        \n        dat[4] = ripemd160(bytes(str));\n    }\n\n}\n\n",
  "sourcePath": "/Users/udaydeshpande/elpt/project/project2/solidity/contracts/Globals.sol",
  "compiler": {
    "name": "solc",
    "version": "0.5.8+commit.23d335f2.Emscripten.clang"
  },
  "schemaVersion": "3.0.16",
  "updatedAt": "2019-10-15T21:21:13.561Z",
  "devdoc": {
    "methods": {}
  },
  "userdoc": {
    "methods": {
      "calculateFutureTime(uint256,uint256)": {
        "notice": "Calculates the time in future Takes a number & a unit for the number e.g., 10 minute, 10 Hour*"
      }
    },
    "notice": "Demonstrates the use of the global variables  and functions*"
  }
}