{
  "contractName": "MappingEnumStruct",
  "abi": [
    {
      "constant": true,
      "inputs": [
        {
          "name": "name",
          "type": "bytes32"
        }
      ],
      "name": "getEuropeanCountry",
      "outputs": [
        {
          "name": "",
          "type": "bytes32"
        },
        {
          "name": "",
          "type": "uint8"
        },
        {
          "name": "",
          "type": "uint16"
        }
      ],
      "payable": false,
      "stateMutability": "view",
      "type": "function"
    },
    {
      "constant": false,
      "inputs": [
        {
          "name": "nm",
          "type": "bytes32"
        },
        {
          "name": "cont",
          "type": "uint8"
        },
        {
          "name": "pop",
          "type": "uint16"
        }
      ],
      "name": "addEuropeanCountry",
      "outputs": [
        {
          "name": "",
          "type": "bool"
        }
      ],
      "payable": false,
      "stateMutability": "nonpayable",
      "type": "function"
    },
    {
      "constant": false,
      "inputs": [
        {
          "name": "countryCheck",
          "type": "string"
        },
        {
          "name": "capital",
          "type": "string"
        }
      ],
      "name": "addCapital",
      "outputs": [],
      "payable": false,
      "stateMutability": "nonpayable",
      "type": "function"
    },
    {
      "constant": true,
      "inputs": [
        {
          "name": "countryCheck",
          "type": "string"
        }
      ],
      "name": "getCapital",
      "outputs": [
        {
          "name": "",
          "type": "string"
        }
      ],
      "payable": false,
      "stateMutability": "view",
      "type": "function"
    },
    {
      "constant": false,
      "inputs": [
        {
          "name": "countryCheck",
          "type": "string"
        }
      ],
      "name": "removeCapital",
      "outputs": [],
      "payable": false,
      "stateMutability": "nonpayable",
      "type": "function"
    },
    {
      "constant": true,
      "inputs": [
        {
          "name": "arg",
          "type": "uint8"
        }
      ],
      "name": "getContinent",
      "outputs": [
        {
          "name": "",
          "type": "string"
        }
      ],
      "payable": false,
      "stateMutability": "pure",
      "type": "function"
    }
  ],
  "bytecode": "0x608060405234801561001057600080fd5b50610d3e806100206000396000f3fe608060405234801561001057600080fd5b50600436106100625760003560e01c8063155371bd14610067578063418db3871461011157806342024a4a14610245578063a28bbb3d146102a6578063b4f9f62114610361578063e8eb2ed9146104b3575b600080fd5b6100966004803603602081101561007d57600080fd5b81019080803560ff169060200190929190505050610511565b6040518080602001828103825283818151815260200191508051906020019080838360005b838110156100d65780820151818401526020810190506100bb565b50505050905090810190601f1680156101035780820380516001836020036101000a031916815260200191505b509250505060405180910390f35b6101ca6004803603602081101561012757600080fd5b810190808035906020019064010000000081111561014457600080fd5b82018360208201111561015657600080fd5b8035906020019184600183028401116401000000008311171561017857600080fd5b91908080601f016020809104026020016040519081016040528093929190818152602001838380828437600081840152601f19601f820116905080830192505050505050509192919290505050610779565b6040518080602001828103825283818151815260200191508051906020019080838360005b8381101561020a5780820151818401526020810190506101ef565b50505050905090810190601f1680156102375780820380516001836020036101000a031916815260200191505b509250505060405180910390f35b61028c6004803603606081101561025b57600080fd5b8101908080359060200190929190803560ff169060200190929190803561ffff169060200190929190505050610884565b604051808215151515815260200191505060405180910390f35b61035f600480360360208110156102bc57600080fd5b81019080803590602001906401000000008111156102d957600080fd5b8201836020820111156102eb57600080fd5b8035906020019184600183028401116401000000008311171561030d57600080fd5b91908080601f016020809104026020016040519081016040528093929190818152602001838380828437600081840152601f19601f820116905080830192505050505050509192919290505050610a06565b005b6104b16004803603604081101561037757600080fd5b810190808035906020019064010000000081111561039457600080fd5b8201836020820111156103a657600080fd5b803590602001918460018302840111640100000000831117156103c857600080fd5b91908080601f016020809104026020016040519081016040528093929190818152602001838380828437600081840152601f19601f8201169050808301925050505050505091929192908035906020019064010000000081111561042b57600080fd5b82018360208201111561043d57600080fd5b8035906020019184600183028401116401000000008311171561045f57600080fd5b91908080601f016020809104026020016040519081016040528093929190818152602001838380828437600081840152601f19601f820116905080830192505050505050509192919290505050610a7e565b005b6104df600480360360208110156104c957600080fd5b8101908080359060200190929190505050610b00565b604051808481526020018360ff1660ff1681526020018261ffff1661ffff168152602001935050505060405180910390f35b60606000600681111561052057fe5b60ff168260ff16141561056a576040518060400160405280600681526020017f41667269636100000000000000000000000000000000000000000000000000008152509050610774565b6001600681111561057757fe5b60ff168260ff1614156105c1576040518060400160405280600981526020017f416e7461727469636100000000000000000000000000000000000000000000008152509050610774565b600260068111156105ce57fe5b60ff168260ff161415610618576040518060400160405280600481526020017f41736961000000000000000000000000000000000000000000000000000000008152509050610774565b6003600681111561062557fe5b60ff168260ff16141561066f576040518060400160405280600981526020017f4175737472616c696100000000000000000000000000000000000000000000008152509050610774565b6004600681111561067c57fe5b60ff168260ff1614156106c6576040518060400160405280600681526020017f4575726f706500000000000000000000000000000000000000000000000000008152509050610774565b600560068111156106d357fe5b60ff168260ff16141561071d576040518060400160405280600d81526020017f4e6f72746820416d6572696361000000000000000000000000000000000000008152509050610774565b60068081111561072957fe5b60ff168260ff161415610773576040518060400160405280600d81526020017f536f75746820416d6572696361000000000000000000000000000000000000008152509050610774565b5b919050565b60606000826040518082805190602001908083835b602083106107b1578051825260208201915060208101905060208303925061078e565b6001836020036101000a03801982511681845116808217855250505050505090500191505090815260200160405180910390208054600181600116156101000203166002900480601f0160208091040260200160405190810160405280929190818152602001828054600181600116156101000203166002900480156108785780601f1061084d57610100808354040283529160200191610878565b820191906000526020600020905b81548152906001019060200180831161085b57829003601f168201915b50505050509050919050565b60006004600681111561089357fe5b60ff168360ff16146108a857600090506109ff565b6108b0610bf2565b60405180606001604052808681526020018560ff1660068111156108d057fe5b60068111156108db57fe5b81526020018461ffff16815250905060405180606001604052808681526020018560ff16600681111561090a57fe5b600681111561091557fe5b81526020018461ffff168152509050848160000181815250508360ff16600681111561093d57fe5b8160200190600681111561094d57fe5b9081600681111561095a57fe5b8152505082816040019061ffff16908161ffff1681525050600181908060018154018082558091505090600182039060005260206000209060020201600090919290919091506000820151816000015560208201518160010160006101000a81548160ff021916908360068111156109ce57fe5b021790555060408201518160010160016101000a81548161ffff021916908361ffff16021790555050505060019150505b9392505050565b6000816040518082805190602001908083835b60208310610a3c5780518252602082019150602081019050602083039250610a19565b6001836020036101000a03801982511681845116808217855250505050505090500191505090815260200160405180910390206000610a7b9190610c25565b50565b806000836040518082805190602001908083835b60208310610ab55780518252602082019150602081019050602083039250610a92565b6001836020036101000a03801982511681845116808217855250505050505090500191505090815260200160405180910390209080519060200190610afb929190610c6d565b505050565b600080600080600090505b6001805490508160ff161015610be95760018160ff1681548110610b2b57fe5b906000526020600020906002020160000154851415610bdc5760018160ff1681548110610b5457fe5b90600052602060002090600202016000015460018260ff1681548110610b7657fe5b906000526020600020906002020160010160009054906101000a900460ff166006811115610ba057fe5b60018360ff1681548110610bb057fe5b906000526020600020906002020160010160019054906101000a900461ffff1693509350935050610beb565b8080600101915050610b0b565b505b9193909250565b60405180606001604052806000801916815260200160006006811115610c1457fe5b8152602001600061ffff1681525090565b50805460018160011615610100020316600290046000825580601f10610c4b5750610c6a565b601f016020900490600052602060002090810190610c699190610ced565b5b50565b828054600181600116156101000203166002900490600052602060002090601f016020900481019282601f10610cae57805160ff1916838001178555610cdc565b82800160010185558215610cdc579182015b82811115610cdb578251825591602001919060010190610cc0565b5b509050610ce99190610ced565b5090565b610d0f91905b80821115610d0b576000816000905550600101610cf3565b5090565b9056fea165627a7a7230582015985099e5ba578e64e33251bd3dc9e37653fc88c07c239d141fa917e09d7bf00029",
  "source": "pragma solidity ^0.5.0;\n\ncontract MappingEnumStruct {\n    // Storage\n    mapping(string => string)   capitals;\n\n    // Enumeration\n    enum continents {Africa,Antartica,Asia,Australia,Europe,North_America, South_America}\n\n    // Country\n    struct country {\n        bytes32     name;\n        continents  continent;\n        uint16      populationInMillion;\n    }\n    // Only countries in Europe added to this array\n    country[]  europeanCountries;\n\n    // Get the country data\n    function getEuropeanCountry(bytes32 name) public view returns (bytes32, uint8, uint16) {\n        // Let's do a linear search to find the ctry\n        for(uint8 i = 0; i < europeanCountries.length; i++){\n            if(name == europeanCountries[i].name) {\n                return (europeanCountries[i].name,uint8(europeanCountries[i].continent), europeanCountries[i].populationInMillion);\n            }\n        }\n    }\n\n    // Structure Cannot be passed as argument so we are passing all elements/attributes of struct as args\n    function addEuropeanCountry(bytes32 nm, uint8 cont, uint16 pop) public returns (bool) {\n\n        if(cont != uint8(continents.Europe)) return false;\n\n        // Declare the structure variable\n        country memory ctry;\n\n        // 3 ways to initialize this struct\n\n        // #1. provide the attribute values in order they appear in the declaration\n        ctry = country(nm, continents(cont), pop);\n\n        // #2. use a json structure\n        ctry = country({name:nm, continent:continents(cont), populationInMillion:pop});\n\n        // #3. use the . notation\n        ctry.name = nm;\n        ctry.continent = continents(cont);\n        ctry.populationInMillion = pop;\n\n        // Push the country in the array\n        europeanCountries.push(ctry);\n        return true;\n    }\n\n    // Add a capital\n    function addCapital(string memory countryCheck, string memory capital) public {\n\n        // Store the capital on per country basis\n        \n        capitals[countryCheck] = capital;\n    }\n\n    // Returns the capital for the country \n    function getCapital(string memory countryCheck) public view returns (string memory){\n\n        return capitals[countryCheck];\n\n    }\n\n    // Remove the key value pair from the mapping\n    function removeCapital(string memory countryCheck) public {\n        delete(capitals[countryCheck]);\n    }\n\n    // get the value at specified index\n    function getContinent(uint8 arg) public pure returns (string memory){\n        if(arg == uint8(continents.Africa)) return \"Africa\";\n        if(arg == uint8(continents.Antartica)) return \"Antartica\";\n        if(arg == uint8(continents.Asia)) return \"Asia\";\n        if(arg == uint8(continents.Australia)) return \"Australia\";\n        if(arg == uint8(continents.Europe)) return \"Europe\";\n        if(arg == uint8(continents.North_America)) return \"North America\";\n        if(arg == uint8(continents.South_America)) return \"South America\";\n    }\n\n}",
  "sourcePath": "/Users/udaydeshpande/elpt/project/project2/solidity/contracts/MappingEnumStruct.sol",
  "compiler": {
    "name": "solc",
    "version": "0.5.8+commit.23d335f2.Emscripten.clang"
  },
  "schemaVersion": "3.0.16",
  "updatedAt": "2019-10-15T21:21:13.566Z",
  "devdoc": {
    "methods": {}
  },
  "userdoc": {
    "methods": {}
  }
}