{
  "contractName": "Modifiers",
  "abi": [
    {
      "constant": true,
      "inputs": [],
      "name": "testMod",
      "outputs": [
        {
          "name": "",
          "type": "uint256"
        }
      ],
      "payable": false,
      "stateMutability": "view",
      "type": "function"
    },
    {
      "constant": true,
      "inputs": [],
      "name": "owner",
      "outputs": [
        {
          "name": "",
          "type": "address"
        }
      ],
      "payable": false,
      "stateMutability": "view",
      "type": "function"
    },
    {
      "inputs": [],
      "payable": false,
      "stateMutability": "nonpayable",
      "type": "constructor"
    },
    {
      "constant": true,
      "inputs": [],
      "name": "checkOwnership",
      "outputs": [
        {
          "name": "",
          "type": "bool"
        }
      ],
      "payable": false,
      "stateMutability": "view",
      "type": "function"
    },
    {
      "constant": false,
      "inputs": [
        {
          "name": "newOwner",
          "type": "address"
        }
      ],
      "name": "transferOwnership",
      "outputs": [
        {
          "name": "",
          "type": "bool"
        }
      ],
      "payable": false,
      "stateMutability": "nonpayable",
      "type": "function"
    },
    {
      "constant": false,
      "inputs": [],
      "name": "bidForOwnership",
      "outputs": [
        {
          "name": "",
          "type": "bool"
        }
      ],
      "payable": true,
      "stateMutability": "payable",
      "type": "function"
    },
    {
      "constant": false,
      "inputs": [],
      "name": "testModifiers",
      "outputs": [],
      "payable": false,
      "stateMutability": "nonpayable",
      "type": "function"
    }
  ],
  "bytecode": "0x6080604052600060035534801561001557600080fd5b50336000806101000a81548173ffffffffffffffffffffffffffffffffffffffff021916908373ffffffffffffffffffffffffffffffffffffffff160217905550610330806100656000396000f3fe6080604052600436106100555760003560e01c8063219a1d771461005a578063291b19f2146100895780635a043dcd146100b457806360ace1ec146100cb5780638da5cb5b146100ed578063f2fde38b14610144575b600080fd5b34801561006657600080fd5b5061006f6101ad565b604051808215151515815260200191505060405180910390f35b34801561009557600080fd5b5061009e610204565b6040518082815260200191505060405180910390f35b3480156100c057600080fd5b506100c961020a565b005b6100d361021e565b604051808215151515815260200191505060405180910390f35b3480156100f957600080fd5b50610102610239565b604051808273ffffffffffffffffffffffffffffffffffffffff1673ffffffffffffffffffffffffffffffffffffffff16815260200191505060405180910390f35b34801561015057600080fd5b506101936004803603602081101561016757600080fd5b81019080803573ffffffffffffffffffffffffffffffffffffffff16906020019092919050505061025e565b604051808215151515815260200191505060405180910390f35b60008060009054906101000a900473ffffffffffffffffffffffffffffffffffffffff1673ffffffffffffffffffffffffffffffffffffffff163373ffffffffffffffffffffffffffffffffffffffff1614905090565b60035481565b600360008154809291906001019190505550565b6000606434106102315760019050610236565b600080fd5b90565b6000809054906101000a900473ffffffffffffffffffffffffffffffffffffffff1681565b60008060009054906101000a900473ffffffffffffffffffffffffffffffffffffffff1673ffffffffffffffffffffffffffffffffffffffff163373ffffffffffffffffffffffffffffffffffffffff1614156102fa57816000806101000a81548173ffffffffffffffffffffffffffffffffffffffff021916908373ffffffffffffffffffffffffffffffffffffffff1602179055506102ff565b600080fd5b91905056fea165627a7a723058206d5d2ff7c846c02039bda08f435e16401143fb27438fe815898d9295799348180029",
  "source": "pragma solidity ^0.5.0;\n\n/**\n * Demonstrates the use of modifiers\n **/\ncontract Modifiers {\n  \n    address   public owner;\n    // Minimum acceptable offer\n    uint  constant  minimumAccetableOffer = 100;\n    uint[]          lastBid;\n    address[]       lastBidder;\n\n    constructor() public {\n        owner = msg.sender;\n    }\n\n    // Restricts execution by owner only\n    modifier  ownerOnly {\n        if(msg.sender == owner) {\n            _;\n        } else {\n            /** Throw an exception */\n            revert();\n        }\n    }\n\n    modifier  minimumAcceptable(){\n        if(msg.value >= minimumAccetableOffer){\n            _;\n        } else {\n            /** Throw an exception */\n            revert();\n        }\n    }\n\n    // Checks if the caller is the owner\n    function  checkOwnership() public view returns(bool) {\n        return  (msg.sender == owner);\n    }\n\n    function  transferOwnership(address newOwner) ownerOnly public returns(bool){\n        owner = newOwner;\n    }\n\n\n    function  bidForOwnership() payable public minimumAcceptable returns(bool)  {\n        // Code the bid pushing\n        return true;\n    }\n\n    // Code for demostrating mutiple modifiers\n    uint  public testMod = 0;\n    modifier mod1(){\n        _;\n    }\n\n    modifier mod2(){\n        _;\n    }\n\n    // Demoonstrates that multiple modifiers may be applied to a function\n    function  testModifiers()  mod1  mod2 public {\n        testMod++;\n    }\n}",
  "sourcePath": "/Users/udaydeshpande/elpt/project/project2/solidity/contracts/Modifiers.sol",
  "compiler": {
    "name": "solc",
    "version": "0.5.8+commit.23d335f2.Emscripten.clang"
  },
  "schemaVersion": "3.0.16",
  "updatedAt": "2019-10-15T21:21:13.572Z",
  "devdoc": {
    "methods": {}
  },
  "userdoc": {
    "methods": {},
    "notice": "Demonstrates the use of modifiers*"
  }
}