{
  "contractName": "NameRegistry",
  "abi": [
    {
      "constant": false,
      "inputs": [
        {
          "name": "name",
          "type": "bytes32"
        },
        {
          "name": "conAddress",
          "type": "address"
        },
        {
          "name": "ver",
          "type": "uint16"
        }
      ],
      "name": "registerName",
      "outputs": [
        {
          "name": "",
          "type": "bool"
        }
      ],
      "payable": false,
      "stateMutability": "nonpayable",
      "type": "function"
    },
    {
      "constant": true,
      "inputs": [
        {
          "name": "name",
          "type": "bytes32"
        }
      ],
      "name": "getContractInfo",
      "outputs": [
        {
          "name": "",
          "type": "address"
        },
        {
          "name": "",
          "type": "uint16"
        }
      ],
      "payable": false,
      "stateMutability": "view",
      "type": "function"
    },
    {
      "constant": true,
      "inputs": [],
      "name": "removeContract",
      "outputs": [
        {
          "name": "",
          "type": "bool"
        }
      ],
      "payable": false,
      "stateMutability": "view",
      "type": "function"
    }
  ],
  "bytecode": "0x608060405234801561001057600080fd5b50610450806100206000396000f3fe608060405234801561001057600080fd5b50600436106100415760003560e01c80630958f83d14610046578063613e2de2146100ba578063fe389e0914610137575b600080fd5b6100a06004803603606081101561005c57600080fd5b8101908080359060200190929190803573ffffffffffffffffffffffffffffffffffffffff169060200190929190803561ffff169060200190929190505050610159565b604051808215151515815260200191505060405180910390f35b6100e6600480360360208110156100d057600080fd5b81019080803590602001909291905050506103b6565b604051808373ffffffffffffffffffffffffffffffffffffffff1673ffffffffffffffffffffffffffffffffffffffff1681526020018261ffff1661ffff1681526020019250505060405180910390f35b61013f61041c565b604051808215151515815260200191505060405180910390f35b600060018261ffff16101561016d57600080fd5b600073ffffffffffffffffffffffffffffffffffffffff1660008086815260200190815260200160002060010160009054906101000a900473ffffffffffffffffffffffffffffffffffffffff1673ffffffffffffffffffffffffffffffffffffffff1614156102b4573360008086815260200190815260200160002060000160006101000a81548173ffffffffffffffffffffffffffffffffffffffff021916908373ffffffffffffffffffffffffffffffffffffffff1602179055508260008086815260200190815260200160002060010160006101000a81548173ffffffffffffffffffffffffffffffffffffffff021916908373ffffffffffffffffffffffffffffffffffffffff1602179055508160008086815260200190815260200160002060010160146101000a81548161ffff021916908361ffff1602179055506103aa565b3373ffffffffffffffffffffffffffffffffffffffff1660008086815260200190815260200160002060000160009054906101000a900473ffffffffffffffffffffffffffffffffffffffff1673ffffffffffffffffffffffffffffffffffffffff161461032557600090506103af565b8260008086815260200190815260200160002060010160006101000a81548173ffffffffffffffffffffffffffffffffffffffff021916908373ffffffffffffffffffffffffffffffffffffffff1602179055508160008086815260200190815260200160002060010160146101000a81548161ffff021916908361ffff1602179055505b600190505b9392505050565b60008060008084815260200190815260200160002060010160009054906101000a900473ffffffffffffffffffffffffffffffffffffffff1660008085815260200190815260200160002060010160149054906101000a900461ffff1691509150915091565b60008090509056fea165627a7a7230582083d999fde3b021f0fa67ba9dfa4cc64e32936488f29c3160271b0bb6d987bed30029",
  "source": "pragma solidity ^0.5.0;\n\n/**\n * Creates a registry for contracts\n **/\ncontract NameRegistry {\n\n    // Manages info about the contract instance\n    struct ContractInfo {\n        address   owner;\n        address   contractInst;\n        // The first version added to registry MUST be >= 1\n        // Otherwise the name will NOT be added\n        uint16    version;\n    }\n\n    // Manages the name to address mapping\n    mapping(bytes32 => ContractInfo)  nameInfo;\n\n    // Adds the version of the contract to be used by apps\n    function  registerName (bytes32 name, address conAddress, uint16  ver) public returns(bool){\n\n        // Version MUST start with number 1\n        if(ver < 1) revert();\n\n        if(nameInfo[name].contractInst == address(0)){\n            nameInfo[name].owner = msg.sender;\n            nameInfo[name].contractInst = conAddress;\n            nameInfo[name].version = ver;\n        } else {\n            if(nameInfo[name].owner != msg.sender)  return false;\n            nameInfo[name].contractInst = conAddress;\n            nameInfo[name].version = ver;\n        }\n        return true;\n    }\n\n    // Contracts having a dependency on this contract will invoke this function\n    function  getContractInfo(bytes32 name) public view  returns(address,uint16){\n        return (nameInfo[name].contractInst, nameInfo[name].version);\n    }\n\n    function  removeContract() public view returns(bool){\n        // Code this on your own\n        return false;\n    }\n\n}",
  "sourcePath": "/Users/udaydeshpande/elpt/project/project2/solidity/contracts/NameRegistry.sol",
  "compiler": {
    "name": "solc",
    "version": "0.5.8+commit.23d335f2.Emscripten.clang"
  },
  "schemaVersion": "3.0.16",
  "updatedAt": "2019-10-15T21:21:13.580Z",
  "devdoc": {
    "methods": {}
  },
  "userdoc": {
    "methods": {},
    "notice": "Creates a registry for contracts*"
  }
}