{
  "contractName": "ObjectOrientation",
  "abi": [
    {
      "constant": true,
      "inputs": [
        {
          "name": "s1",
          "type": "string"
        },
        {
          "name": "s2",
          "type": "string"
        }
      ],
      "name": "concatenate",
      "outputs": [
        {
          "name": "",
          "type": "string"
        }
      ],
      "payable": false,
      "stateMutability": "pure",
      "type": "function"
    },
    {
      "constant": true,
      "inputs": [],
      "name": "getAgentInformation",
      "outputs": [
        {
          "name": "name",
          "type": "string"
        },
        {
          "name": "commission",
          "type": "uint256"
        }
      ],
      "payable": false,
      "stateMutability": "view",
      "type": "function"
    },
    {
      "inputs": [
        {
          "name": "agentName",
          "type": "string"
        },
        {
          "name": "rate",
          "type": "uint8"
        }
      ],
      "payable": false,
      "stateMutability": "nonpayable",
      "type": "constructor"
    },
    {
      "constant": false,
      "inputs": [
        {
          "name": "saleAmount",
          "type": "uint16"
        }
      ],
      "name": "calculateAgentCommission",
      "outputs": [],
      "payable": false,
      "stateMutability": "nonpayable",
      "type": "function"
    },
    {
      "constant": false,
      "inputs": [
        {
          "name": "greaterThan",
          "type": "uint8"
        }
      ],
      "name": "getOwnerInfo",
      "outputs": [
        {
          "name": "name",
          "type": "string"
        },
        {
          "name": "age",
          "type": "uint8"
        }
      ],
      "payable": false,
      "stateMutability": "nonpayable",
      "type": "function"
    },
    {
      "constant": false,
      "inputs": [],
      "name": "getOwnerInfo",
      "outputs": [
        {
          "name": "name",
          "type": "string"
        },
        {
          "name": "age",
          "type": "uint8"
        }
      ],
      "payable": false,
      "stateMutability": "nonpayable",
      "type": "function"
    }
  ],
  "bytecode": "0x608060405234801561001057600080fd5b506040516108193803806108198339810180604052604081101561003357600080fd5b81019080805164010000000081111561004b57600080fd5b8281019050602081018481111561006157600080fd5b815185600182028301116401000000008211171561007e57600080fd5b50509291906020018051906020019092919050505081806000800190805190602001906100ac9291906100d0565b505080600260006101000a81548160ff021916908360ff1602179055505050610175565b828054600181600116156101000203166002900490600052602060002090601f016020900481019282601f1061011157805160ff191683800117855561013f565b8280016001018555821561013f579182015b8281111561013e578251825591602001919060010190610123565b5b50905061014c9190610150565b5090565b61017291905b8082111561016e576000816000905550600101610156565b5090565b90565b610695806101846000396000f3fe608060405234801561001057600080fd5b50600436106100575760003560e01c8063266001d31461005c578063acdc57fd14610227578063af7bfc78146102b1578063d1d7592714610368578063facf83231461039a575b600080fd5b6101ac6004803603604081101561007257600080fd5b810190808035906020019064010000000081111561008f57600080fd5b8201836020820111156100a157600080fd5b803590602001918460018302840111640100000000831117156100c357600080fd5b91908080601f016020809104026020016040519081016040528093929190818152602001838380828437600081840152601f19601f8201169050808301925050505050505091929192908035906020019064010000000081111561012657600080fd5b82018360208201111561013857600080fd5b8035906020019184600183028401116401000000008311171561015a57600080fd5b91908080601f016020809104026020016040519081016040528093929190818152602001838380828437600081840152601f19601f82011690508083019250505050505050919291929050505061042a565b6040518080602001828103825283818151815260200191508051906020019080838360005b838110156101ec5780820151818401526020810190506101d1565b50505050905090810190601f1680156102195780820380516001836020036101000a031916815260200191505b509250505060405180910390f35b61022f610573565b6040518080602001838152602001828103825284818151815260200191508051906020019080838360005b8381101561027557808201518184015260208101905061025a565b50505050905090810190601f1680156102a25780820380516001836020036101000a031916815260200191505b50935050505060405180910390f35b6102e0600480360360208110156102c757600080fd5b81019080803560ff169060200190929190505050610622565b60405180806020018360ff1660ff168152602001828103825284818151815260200191508051906020019080838360005b8381101561032c578082015181840152602081019050610311565b50505050905090810190601f1680156103595780820380516001836020036101000a031916815260200191505b50935050505060405180910390f35b6103986004803603602081101561037e57600080fd5b81019080803561ffff16906020019092919050505061062b565b005b6103a2610661565b60405180806020018360ff1660ff168152602001828103825284818151815260200191508051906020019080838360005b838110156103ee5780820151818401526020810190506103d3565b50505050905090810190601f16801561041b5780820380516001836020036101000a031916815260200191505b50935050505060405180910390f35b6060808390506060839050606081518351016040519080825280601f01601f19166020018201604052801561046e5781602001600182028038833980820191505090505b5090506060819050600080905060008090505b85518110156104ef5785818151811061049657fe5b602001015160f81c60f81b8383806001019450815181106104b357fe5b60200101907effffffffffffffffffffffffffffffffffffffffffffffffffffffffffffff1916908160001a9053508080600101915050610481565b5060008090505b84518110156105645784818151811061050b57fe5b602001015160f81c60f81b83838060010194508151811061052857fe5b60200101907effffffffffffffffffffffffffffffffffffffffffffffffffffffffffffff1916908160001a90535080806001019150506104f6565b50819550505050505092915050565b60606000806000018054600181600116156101000203166002900480601f01602080910402602001604051908101604052809291908181526020018280546001816001161561010002031660029004801561060f5780601f106105e45761010080835404028352916020019161060f565b820191906000526020600020905b8154815290600101906020018083116105f257829003601f168201915b5050505050915060006001015490509091565b60606000915091565b606481600260009054906101000a900460ff1660640160ff160261ffff168161065057fe5b0461ffff1660006001018190555050565b60606000909156fea165627a7a72305820ec06ef3fd61bb741fa0c29566dfc843439bbe0f09c51872d545dcfe4b875a93f0029",
  "source": "pragma solidity ^0.5.0;\n\nimport \"./AbstractContract.sol\";\nimport \"./UtilContract.sol\";\n\n// Demonstrates Solidity's support for object orientation\ncontract ObjectOrientation is AbstractContract, UtilContract {\n\n  uint8   commissionRate;\n\n\n  // Constructor invokes the constructor of the base class\n  constructor(string memory agentName, uint8 rate) public AbstractContract(agentName) {\n    commissionRate = rate;\n  }\n\n  // This function has to be implemented otherwise this contract will be abstract\n  function  calculateAgentCommission(uint16 saleAmount) public {\n    // The commissionRate is in percentage\n    agent.commission = ((100 + commissionRate)*saleAmount)/100;\n  }\n\n  // OVERLOADING - following two functions have the same name\n  function  getOwnerInfo() public returns (string memory name, uint8 age) {\n    /** ignore warnings - they are due to unused vars & args */\n  }\n  \n  function  getOwnerInfo(uint8 greaterThan) public  returns (string memory name, uint8 age) {\n     /** ignore warnings - they are due to unused vars & args */\n  }\n\n\n}",
  "sourcePath": "/Users/udaydeshpande/elpt/project/project2/solidity/contracts/ObjectOrientation.sol",
  "compiler": {
    "name": "solc",
    "version": "0.5.8+commit.23d335f2.Emscripten.clang"
  },
  "schemaVersion": "3.0.16",
  "updatedAt": "2019-10-14T17:32:54.016Z",
  "devdoc": {
    "methods": {}
  },
  "userdoc": {
    "methods": {}
  }
}