{
  "contractName": "UserAddressRegistry",
  "abi": [
    {
      "inputs": [],
      "payable": false,
      "stateMutability": "nonpayable",
      "type": "constructor"
    },
    {
      "constant": false,
      "inputs": [
        {
          "name": "name",
          "type": "bytes32"
        }
      ],
      "name": "registerName",
      "outputs": [
        {
          "name": "",
          "type": "bool"
        }
      ],
      "payable": false,
      "stateMutability": "nonpayable",
      "type": "function"
    },
    {
      "constant": false,
      "inputs": [
        {
          "name": "given",
          "type": "address"
        },
        {
          "name": "name",
          "type": "bytes32"
        }
      ],
      "name": "updateName",
      "outputs": [
        {
          "name": "",
          "type": "bool"
        }
      ],
      "payable": false,
      "stateMutability": "nonpayable",
      "type": "function"
    },
    {
      "constant": false,
      "inputs": [
        {
          "name": "given",
          "type": "address"
        }
      ],
      "name": "deleteName",
      "outputs": [
        {
          "name": "",
          "type": "bool"
        }
      ],
      "payable": false,
      "stateMutability": "nonpayable",
      "type": "function"
    },
    {
      "constant": true,
      "inputs": [],
      "name": "count",
      "outputs": [
        {
          "name": "",
          "type": "uint256"
        }
      ],
      "payable": false,
      "stateMutability": "view",
      "type": "function"
    },
    {
      "constant": true,
      "inputs": [
        {
          "name": "index",
          "type": "uint256"
        }
      ],
      "name": "getByIndex",
      "outputs": [
        {
          "name": "",
          "type": "address"
        },
        {
          "name": "",
          "type": "bytes32"
        },
        {
          "name": "",
          "type": "uint256"
        }
      ],
      "payable": false,
      "stateMutability": "view",
      "type": "function"
    },
    {
      "constant": true,
      "inputs": [
        {
          "name": "addr",
          "type": "address"
        }
      ],
      "name": "getByAddress",
      "outputs": [
        {
          "name": "",
          "type": "address"
        },
        {
          "name": "",
          "type": "bytes32"
        },
        {
          "name": "",
          "type": "uint256"
        }
      ],
      "payable": false,
      "stateMutability": "view",
      "type": "function"
    }
  ],
  "bytecode": "0x608060405234801561001057600080fd5b50336000806101000a81548173ffffffffffffffffffffffffffffffffffffffff021916908373ffffffffffffffffffffffffffffffffffffffff160217905550610a33806100606000396000f3fe608060405234801561001057600080fd5b50600436106100625760003560e01c806306661abd146100675780632d883a73146100855780632eba1c401461010157806330257bf71461015d578063b162a382146101ef578063d6da080514610255575b600080fd5b61006f61029b565b6040518082815260200191505060405180910390f35b6100b16004803603602081101561009b57600080fd5b81019080803590602001909291905050506102a8565b604051808473ffffffffffffffffffffffffffffffffffffffff1673ffffffffffffffffffffffffffffffffffffffff168152602001838152602001828152602001935050505060405180910390f35b6101436004803603602081101561011757600080fd5b81019080803573ffffffffffffffffffffffffffffffffffffffff1690602001909291905050506103a4565b604051808215151515815260200191505060405180910390f35b61019f6004803603602081101561017357600080fd5b81019080803573ffffffffffffffffffffffffffffffffffffffff169060200190929190505050610469565b604051808473ffffffffffffffffffffffffffffffffffffffff1673ffffffffffffffffffffffffffffffffffffffff168152602001838152602001828152602001935050505060405180910390f35b61023b6004803603604081101561020557600080fd5b81019080803573ffffffffffffffffffffffffffffffffffffffff16906020019092919080359060200190929190505050610502565b604051808215151515815260200191505060405180910390f35b6102816004803603602081101561026b57600080fd5b8101908080359060200190929190505050610652565b604051808215151515815260200191505060405180910390f35b6000600280549050905090565b600080600060028054905084106102d25760008060001b600082925080905092509250925061039d565b6000600285815481106102e157fe5b9060005260206000200160009054906101000a900473ffffffffffffffffffffffffffffffffffffffff16905080600160008373ffffffffffffffffffffffffffffffffffffffff1673ffffffffffffffffffffffffffffffffffffffff16815260200190815260200160002060000154600160008473ffffffffffffffffffffffffffffffffffffffff1673ffffffffffffffffffffffffffffffffffffffff16815260200190815260200160002060010154935093509350505b9193909250565b60008060009054906101000a900473ffffffffffffffffffffffffffffffffffffffff1673ffffffffffffffffffffffffffffffffffffffff163373ffffffffffffffffffffffffffffffffffffffff16141561045f57600160008373ffffffffffffffffffffffffffffffffffffffff1673ffffffffffffffffffffffffffffffffffffffff168152602001908152602001600020600080820160009055600182016000905550506104568261085c565b60019050610464565b600080fd5b919050565b600080600083600160008673ffffffffffffffffffffffffffffffffffffffff1673ffffffffffffffffffffffffffffffffffffffff16815260200190815260200160002060000154600160008773ffffffffffffffffffffffffffffffffffffffff1673ffffffffffffffffffffffffffffffffffffffff168152602001908152602001600020600101549250925092509193909250565b60008060009054906101000a900473ffffffffffffffffffffffffffffffffffffffff1673ffffffffffffffffffffffffffffffffffffffff163373ffffffffffffffffffffffffffffffffffffffff161415610647576000801b600160008573ffffffffffffffffffffffffffffffffffffffff1673ffffffffffffffffffffffffffffffffffffffff1681526020019081526020016000206000015414156105af5760009050610642565b81600160008573ffffffffffffffffffffffffffffffffffffffff1673ffffffffffffffffffffffffffffffffffffffff1681526020019081526020016000206000018190555042600160003373ffffffffffffffffffffffffffffffffffffffff1673ffffffffffffffffffffffffffffffffffffffff16815260200190815260200160002060010181905550600190505b61064c565b600080fd5b92915050565b60008060001b821415610710576000801b600160003373ffffffffffffffffffffffffffffffffffffffff1673ffffffffffffffffffffffffffffffffffffffff16815260200190815260200160002060000154146106fe57600160003373ffffffffffffffffffffffffffffffffffffffff1673ffffffffffffffffffffffffffffffffffffffff168152602001908152602001600020600080820160009055600182016000905550505b6107073361085c565b60009050610857565b6000801b600160003373ffffffffffffffffffffffffffffffffffffffff1673ffffffffffffffffffffffffffffffffffffffff1681526020019081526020016000206000015414156107c45760023390806001815401808255809150509060018203906000526020600020016000909192909190916101000a81548173ffffffffffffffffffffffffffffffffffffffff021916908373ffffffffffffffffffffffffffffffffffffffff160217905550505b81600160003373ffffffffffffffffffffffffffffffffffffffff1673ffffffffffffffffffffffffffffffffffffffff1681526020019081526020016000206000018190555042600160003373ffffffffffffffffffffffffffffffffffffffff1673ffffffffffffffffffffffffffffffffffffffff16815260200190815260200160002060010181905550600190505b919050565b60008090505b6002805490508110156109b1576002818154811061087c57fe5b9060005260206000200160009054906101000a900473ffffffffffffffffffffffffffffffffffffffff1673ffffffffffffffffffffffffffffffffffffffff168273ffffffffffffffffffffffffffffffffffffffff1614156109a4575b60016002805490500381101561098857600260018201815481106108fb57fe5b9060005260206000200160009054906101000a900473ffffffffffffffffffffffffffffffffffffffff166002828154811061093357fe5b9060005260206000200160006101000a81548173ffffffffffffffffffffffffffffffffffffffff021916908373ffffffffffffffffffffffffffffffffffffffff16021790555080806001019150506108db565b600280548091906001900361099d91906109b6565b50506109b3565b8080600101915050610862565b505b50565b8154818355818111156109dd578183600052602060002091820191016109dc91906109e2565b5b505050565b610a0491905b80821115610a005760008160009055506001016109e8565b5090565b9056fea165627a7a723058200619dc42af513ded45848de7118f7041d38f90e1c5ca63e94cadfe12b47d4f140029",
  "source": "pragma solidity ^0.5.0;\n\n/**\n * Implements the registry for address => name mapping\n * This registry pattern contract is used by thedapps.com for personalizing the user experience\n * \n * Pattern: Mapping Iteration\n **/\n\ncontract UserAddressRegistry {\n\n    address   owner;\n\n  // =======\n    struct User {\n        bytes32   name;\n        uint      lastUpdated;\n    }\n\n    // Manages the mapping between address & name\n    mapping(address => User)  addressMap;\n\n    // Manages the list of addresses\n    address[]   addresses;\n\n    modifier OwnerOnly() {\n        if(msg.sender == owner) _;\n        else revert();\n    }\n\n    constructor() public {\n        owner = msg.sender;\n    }\n\n    // Registers the name\n    function registerName(bytes32 name) public returns (bool){\n        // if(name == 0x0) return false;\n        if(name == bytes32(0x0)){\n            // owner wants to delete the registration\n            if(addressMap[msg.sender].name != bytes32(0x0)){\n                delete(addressMap[msg.sender]);\n            }\n            removeFromAddresses(msg.sender);\n            return false;\n        }\n\n        if(addressMap[msg.sender].name == bytes32(0x0)){\n            addresses.push(msg.sender);\n        }\n        addressMap[msg.sender].name = name;\n        addressMap[msg.sender].lastUpdated = now;\n        return true;\n    }\n\n    // Only Owner can update the name \n    function updateName(address given, bytes32 name) public OwnerOnly  returns (bool){\n        if(addressMap[given].name == bytes32(0x0)) return false;\n        addressMap[given].name = name;\n        addressMap[msg.sender].lastUpdated = now;\n        return true;\n    }\n\n    // Owner can force delete\n    function deleteName(address given) public OwnerOnly returns (bool){\n        delete(addressMap[given]);\n        removeFromAddresses(given);\n        return true;\n    }\n\n\n    // Returns the count of registered names\n    function  count() public view returns (uint){\n        return addresses.length;\n    }\n\n  \n    // Returns the address-name at the specified index\n    function  getByIndex(uint index) public view returns (address, bytes32,uint){\n        if(index >= addresses.length) return (address(0), bytes32(0), 0);\n        address addr = addresses[index];\n        return (addr, addressMap[addr].name, addressMap[addr].lastUpdated);\n    }\n\n    // Returns the address-name by way of the address\n    function  getByAddress(address addr) public view returns (address,bytes32,uint){\n        return (addr, addressMap[addr].name, addressMap[addr].lastUpdated);\n    }\n\n    /**\n    * Solidity does not provide an out of the box function to remove the \n    * element of an array and shrink it.\n    **/\n    function removeFromAddresses(address addr) private {\n        for(uint i = 0; i < addresses.length; i++) {\n            if(addr == addresses[i]){\n                // This simply zeroes out the element - length stays the same\n                //delete(addresses[i]);\n\n                // This while loop will shrink size of the array\n                while (i < addresses.length - 1) {\n                    addresses[i] = addresses[i+1];\n                    i++;\n                }\n                addresses.length--;\n                return;\n            }\n        }\n    }\n}",
  "sourcePath": "/Users/udaydeshpande/elpt/project/project2/solidity/contracts/UserAddressRegistry.sol",
  "compiler": {
    "name": "solc",
    "version": "0.5.8+commit.23d335f2.Emscripten.clang"
  },
  "schemaVersion": "3.0.16",
  "updatedAt": "2019-10-15T22:08:10.491Z",
  "devdoc": {
    "methods": {}
  },
  "userdoc": {
    "methods": {},
    "notice": "Implements the registry for address => name mapping This registry pattern contract is used by thedapps.com for personalizing the user experience  * Pattern: Mapping Iteration*"
  }
}