{
  "contractName": "UtilContract",
  "abi": [
    {
      "constant": true,
      "inputs": [
        {
          "name": "s1",
          "type": "string"
        },
        {
          "name": "s2",
          "type": "string"
        }
      ],
      "name": "concatenate",
      "outputs": [
        {
          "name": "",
          "type": "string"
        }
      ],
      "payable": false,
      "stateMutability": "pure",
      "type": "function"
    }
  ],
  "bytecode": "0x608060405234801561001057600080fd5b50610370806100206000396000f3fe608060405234801561001057600080fd5b506004361061002b5760003560e01c8063266001d314610030575b600080fd5b6101806004803603604081101561004657600080fd5b810190808035906020019064010000000081111561006357600080fd5b82018360208201111561007557600080fd5b8035906020019184600183028401116401000000008311171561009757600080fd5b91908080601f016020809104026020016040519081016040528093929190818152602001838380828437600081840152601f19601f820116905080830192505050505050509192919290803590602001906401000000008111156100fa57600080fd5b82018360208201111561010c57600080fd5b8035906020019184600183028401116401000000008311171561012e57600080fd5b91908080601f016020809104026020016040519081016040528093929190818152602001838380828437600081840152601f19601f8201169050808301925050505050505091929192905050506101fb565b6040518080602001828103825283818151815260200191508051906020019080838360005b838110156101c05780820151818401526020810190506101a5565b50505050905090810190601f1680156101ed5780820380516001836020036101000a031916815260200191505b509250505060405180910390f35b6060808390506060839050606081518351016040519080825280601f01601f19166020018201604052801561023f5781602001600182028038833980820191505090505b5090506060819050600080905060008090505b85518110156102c05785818151811061026757fe5b602001015160f81c60f81b83838060010194508151811061028457fe5b60200101907effffffffffffffffffffffffffffffffffffffffffffffffffffffffffffff1916908160001a9053508080600101915050610252565b5060008090505b8451811015610335578481815181106102dc57fe5b602001015160f81c60f81b8383806001019450815181106102f957fe5b60200101907effffffffffffffffffffffffffffffffffffffffffffffffffffffffffffff1916908160001a90535080806001019150506102c7565b5081955050505050509291505056fea165627a7a72305820628db00d543a938652b6fa9073cafc1559908f828fd755a8802a634892de3b780029",
  "source": "pragma solidity ^0.5.0;\n\n// Utilities for contracts\ncontract UtilContract {\n\n  // Concatenates strings\n  // Perfect example of a \"pure\" function - no reference to any storage\n  function  concatenate(string memory s1, string memory s2) public pure returns(string memory) {\n\n    bytes memory a = bytes(s1);\n    bytes memory b = bytes(s2);\n    string memory concat = new string(a.length+b.length);\n    bytes  memory bm = bytes(concat);\n    uint k = 0;\n\n    for (uint i = 0; i < a.length; i++) {\n      bm[k++] = a[i];\n    }\n\n    for (uint i = 0; i < b.length; i++) {\n      bm[k++] = b[i];\n    }\n\n    return string(bm);\n  }\n}",
  "sourcePath": "/Users/udaydeshpande/elpt/project/project2/solidity/contracts/UtilContract.sol",
  "compiler": {
    "name": "solc",
    "version": "0.5.8+commit.23d335f2.Emscripten.clang"
  },
  "schemaVersion": "3.0.16",
  "updatedAt": "2019-10-13T21:59:09.817Z",
  "devdoc": {
    "methods": {}
  },
  "userdoc": {
    "methods": {}
  }
}